:100000000C942A000C9447000C9447000C94470071
:100010000C9471080C943E080C9447000C940B0847
:100020000C9447000C94D8070C94A5070C94720705
:100030000C9447000C9447000C9447000C94470024
:100040000C9447000C9447000C9447000C94470014
:100050000C94470011241FBECFE5D8E0DEBFCDBF12
:1000600010E0A0E6B0E0E4EEF0E302C005900D92EF
:10007000AC36B107D9F710E0ACE6B0E001C01D9294
:10008000A038B107E1F70E948A160C9470180C94FE
:100090000000EF92FF920F931F937B018C0120E0F1
:1000A00030E040E05FE40E94F50388238CF0C80153
:1000B000B70120E030E040E05FE40E94C1010E940F
:1000C00055049B01AC01205030404040504806C0D0
:1000D000C801B7010E9455049B01AC01B901CA01D6
:1000E0001F910F91FF90EF900895A0E0B0E0EBE733
:1000F000F0E00C943918DC012B01FA019C9192304C
:1001000008F439C1EB018881823008F433C194309E
:1001100069F4843009F02FC111969C91119789815F
:10012000981709F428C1A0E6B0E025C1843009F48D
:1001300021C18230A9F4923009F01DC19A01AD01AC
:1001400088E0EA010990AE01E90109929E0181501F
:10015000C1F7E201898111969C918923818308C1AD
:10016000923009F407C112962D903C901397EB0141
:100170008A819B811496AD90BD90CD90DC901797AD
:10018000EC80FD800E811F819101281B390BB90184
:1001900037FF04C066277727621B730B6032710537
:1001A0000CF061C0121613066CF537014801062EDB
:1001B00004C096948794779467940A94D2F721E0C8
:1001C00030E040E050E004C0220F331F441F551FB1
:1001D0006A95D2F721503040404050402E213F21B7
:1001E00040235123211531054105510521F021E01E
:1001F00030E040E050E079018A01E628F72808293C
:1002000019293CC0232BD1F1260E371E350146019A
:10021000062E04C096948794779467940A94D2F734
:1002200021E030E040E050E004C0220F331F441FC3
:10023000551F6A95D2F721503040404050402A2146
:100240003B214C215D21211531054105510521F04E
:1002500021E030E040E050E059016A01A628B728CB
:10026000C828D9280BC0821593052CF01C01AA249C
:10027000BB24650103C0EE24FF24870111969C91E5
:10028000D20111968C91981709F445C0992339F041
:10029000A80197012A193B094C095D0906C0A6016E
:1002A00095012E193F09400B510B57FD08C01182D3
:1002B0003382228224833583468357831DC081E0A5
:1002C00081833382228288279927DC01821B930B4A
:1002D000A40BB50B84839583A683B7830DC0220F2F
:1002E000331F441F551F24833583468357838281E0
:1002F000938101979383828324813581468157813D
:10030000DA01C9010197A109B1098F5F9F4FAF4F72
:10031000BF4328F30BC0918333822282EA0CFB1C7B
:100320000C1D1D1DE482F5820683178383E0808304
:10033000248135814681578157FF1AC0C901AA27F8
:1003400097FDA095BA2F81709070A070B0705695EF
:10035000479537952795822B932BA42BB52B848318
:100360009583A683B7838281938101969383828349
:10037000DF0101C0D201CD01CDB7DEB7E2E10C94BF
:100380005518A0E2B0E0E7ECF1E00C944518698361
:100390007A838B839C832D833E834F835887E9E048
:1003A000EE2EF12CEC0EFD1ECE010196B7010E943F
:1003B0007E058E010F5E1F4FCE010596B8010E948B
:1003C0007E058A8991E089278A8BC701B801AE0131
:1003D000475E5F4F0E9475000E94A904A096E6E068
:1003E0000C946118A0E2B0E0E8EFF1E00C9445183D
:1003F00069837A838B839C832D833E834F835887C5
:10040000F9E0EF2EF12CEC0EFD1ECE010196B701A6
:100410000E947E058E010F5E1F4FCE010596B8012A
:100420000E947E05C701B801AE01475E5F4F0E9482
:1004300075000E94A904A096E6E00C946118A0E261
:10044000B0E0E5E2F2E00C94391869837A838B839B
:100450009C832D833E834F835887CE010196BE0136
:10046000675F7F4F0E947E05CE010596BE016F5EDD
:100470007F4F0E947E059985923088F0898982306D
:10048000C8F0943019F4823051F404C0843029F457
:10049000923081F480E690E0C6C0923049F420E0CA
:1004A0009A858A89981321E02A87CE010996BBC0D4
:1004B000823049F420E09A858A89981321E02A8BBA
:1004C000CE014196B0C02D843E844F8458886D88FB
:1004D0007E888F88988CEE24FF248701AA24BB2471
:1004E000650140E050E060E070E0E0E0F0E0C10174
:1004F00081709070892BE9F0E60CF71C081D191D1E
:100500009A01AB012A0D3B1D4C1D5D1D80E090E062
:10051000A0E0B0E0E614F7040805190520F481E036
:1005200090E0A0E0B0E0BA01A901480F591F6A1F8E
:100530007B1FAA0CBB1CCC1CDD1C97FE08C081E0F5
:1005400090E0A0E0B0E0A82AB92ACA2ADB2A3196B6
:10055000E032F10549F0660C771C881C991C569412
:10056000479437942794C3CFFA85EA892B893C892D
:100570008B859C85280F391F2E5F3F4F17C0CA01FE
:1005800081709070892B61F016950795F794E79428
:1005900080E090E0A0E0B0E8E82AF92A0A2B1B2BC3
:1005A00076956795579547952F5F3F4F77FDE7CF36
:1005B0000CC0440F551F661F771F17FD4160EE0CDE
:1005C000FF1C001F111F21503040403090E05907A0
:1005D00090E0690790E4790760F32B8F3C8FDB0193
:1005E000CA018F779070A070B07080349105A1051A
:1005F000B10561F447FD0AC0E114F10401051105DC
:1006000029F0405C5F4F6F4F7F4F40781A8EFE1786
:1006100011F081E08A8F4D8F5E8F6F8F78A383E01A
:10062000898FCE0149960E94A904A096E2E10C941C
:100630005518A8E1B0E0EFE1F3E00C9441186983AC
:100640007A838B839C832D833E834F835887B9E0C5
:10065000EB2EF12CEC0EFD1ECE010196B7010E948F
:100660007E058E010F5E1F4FCE010596B8010E94D8
:100670007E052985223008F47EC03989323010F495
:10068000B8017CC08A859A8989278A87243011F02D
:10069000223031F4231709F06EC060E670E06EC0BE
:1006A000343039F41D861E861F86188A1C861B86E8
:1006B00004C0323021F484E08987B7015FC02B8504
:1006C0003C858B899C89281B390B3C872B87ED84C3
:1006D000FE840F851889AD88BE88CF88D88CEA142F
:1006E000FB040C051D0540F4EE0CFF1C001F111F40
:1006F000215030403C872B8720E030E040E050E044
:1007000080E090E0A0E0B0E460E070E0EA14FB0478
:100710000C051D0540F0282B392B4A2B5B2BEA18C2
:10072000FB080C091D09B695A79597958795EE0CC2
:10073000FF1C001F111F6F5F7F4F6F31710531F775
:10074000DA01C9018F779070A070B0708034910584
:10075000A105B10561F427FD0AC0E114F10401050A
:10076000110529F0205C3F4F4F4F5F4F20782D87B8
:100770003E874F87588BBE01675F7F4FCB010E943A
:10078000A9046896EAE00C945D18A8E1B0E0EBECEF
:10079000F3E00C94451869837A838B839C832D83C3
:1007A0003E834F83588789E0E82EF12CEC0EFD1E26
:1007B000CE010196B7010E947E058E010F5E1F4F8C
:1007C000CE010596B8010E947E058985823040F0F1
:1007D0008989823028F0C701B8010E94F60501C05E
:1007E0008FEF6896E6E00C946118A8E1B0E0EBEFBB
:1007F000F3E00C94451869837A838B839C832D8363
:100800003E834F83588789E0E82EF12CEC0EFD1EC5
:10081000CE010196B7010E947E058E010F5E1F4F2B
:10082000CE010596B8010E947E058985823040F090
:100830008989823028F0C701B8010E94F60501C0FD
:100840008FEF6896E6E00C946118A8E1B0E0EBE267
:10085000F4E00C94451869837A838B839C832D8301
:100860003E834F83588789E0E82EF12CEC0EFD1E65
:10087000CE010196B7010E947E058E010F5E1F4FCB
:10088000CE010596B8010E947E058985823040F030
:100890008989823028F0C701B8010E94F60501C09D
:1008A00081E06896E6E00C946118ACE0B0E0EBE51E
:1008B000F4E00C94491869837A838B839C83CE017E
:1008C0000196BE016B5F7F4F0E947E058D81823055
:1008D00061F1823050F1843021F48E81882351F10E
:1008E0002EC02F81388537FD20C06E812F31310514
:1008F0001CF06623F9F023C08EE190E0821B930B7D
:1009000029853A854B855C8504C056954795379572
:1009100027958A95D2F76623B1F05095409530958A
:1009200021953F4F4F4F5F4F0EC020E030E040E039
:1009300050E009C02FEF3FEF4FEF5FE704C020E02A
:1009400030E040E050E8B901CA012C96E2E00C9496
:100950006518DF92EF92FF920F931F93FC01E480E2
:10096000F58006811781D1808081823048F480E053
:1009700090E0A0E1B0E0E82AF92A0A2B1B2BA5C0E1
:10098000843009F49FC0823021F4EE24FF248701D3
:1009900005C0E114F1040105110519F4E0E0F0E0EF
:1009A00096C0628173819FEF623879070CF05BC05B
:1009B00022E83FEF261B370B2A3131052CF020E0CF
:1009C00030E040E050E02AC0B801A701022E04C088
:1009D00076956795579547950A94D2F781E090E010
:1009E000A0E0B0E004C0880F991FAA1FBB1F2A9582
:1009F000D2F70197A109B1098E219F21A023B1232C
:100A00000097A105B10521F081E090E0A0E0B0E001
:100A10009A01AB01282B392B4A2B5B2BDA01C90138
:100A20008F779070A070B07080349105A105B105EA
:100A300039F427FF09C0205C3F4F4F4F5F4F04C080
:100A4000215C3F4F4F4F5F4FE0E0F0E02030A0E0EF
:100A50003A07A0E04A07A0E45A0710F0E1E0F0E00E
:100A600079018A0127C06038710564F5FB01E158FE
:100A7000FF4FD801C7018F779070A070B07080349D
:100A80009105A105B10539F4E7FE0DC080E490E0C1
:100A9000A0E0B0E004C08FE390E0A0E0B0E0E80E9A
:100AA000F91E0A1F1B1F17FF05C016950795F7941F
:100AB000E794319687E016950795F794E7948A9521
:100AC000D1F705C0EE24FF248701EFEFF0E06E2F91
:100AD000679566276795902F9F77D794DD24D794E5
:100AE0008E2F8695492F462B582F5D29B701CA01B5
:100AF0001F910F91FF90EF90DF900895FC01DB01B3
:100B0000408151812281622F6F7770E0221F22275E
:100B1000221F9381892F880F822B282F30E0991F65
:100B20009927991F11969C93119721153105A9F5C5
:100B3000411551056105710511F482E037C082E865
:100B40009FEF13969C938E9312979A01AB0167E0E7
:100B5000220F331F441F551F6A95D1F783E08C93F2
:100B60000DC0220F331F441F551F12968D919C916B
:100B70001397019713969C938E931297203080E0E1
:100B8000380780E0480780E4580758F314962D93FF
:100B90003D934D935C93179708952F3F310579F45A
:100BA000411551056105710519F484E08C93089590
:100BB00064FF03C081E08C9312C01C9210C02F57B9
:100BC000304013963C932E93129783E08C9387E0EA
:100BD000440F551F661F771F8A95D1F770641496CE
:100BE0004D935D936D937C93179708951F93DC014C
:100BF000FB019C91923008F447C08081823008F458
:100C000043C0943051F411961C91843099F5818140
:100C1000682F70E0611B71093FC0843021F0923071
:100C200031F48230B9F18181882389F12DC0119688
:100C30001C9111978230F1F081811817D9F4129626
:100C40002D913C911397828193818217930794F0A1
:100C500028173907BCF014968D919D910D90BC9189
:100C6000A02D2481358146815781281739074A07ED
:100C70005B0718F4112341F00AC082179307A407F9
:100C8000B50740F4112319F061E070E005C06FEF83
:100C90007FEF02C060E070E0CB011F910895DF9309
:100CA000CF9300D000D0CDB7DEB79C838B831A8260
:100CB0001982EBE2F0E082E08083AAE2B0E0EB810F
:100CC000FC818481847088618C93A0E4B0E0EB8126
:100CD000FC818681882F90E0002496958795079463
:100CE000969587950794982F802D282F2068EB8163
:100CF000FC818781882F90E082959295907F98273C
:100D0000807F9827282BEB81FC818581882F90E0BC
:100D1000880F991F880F991F880F991F282BEB8127
:100D2000FC818481882F90E083709070880F991FD8
:100D3000822B8C93EB81FC818681813051F4A0E47D
:100D4000B0E0E0E4F0E09081EB81FC818085892BCC
:100D50008C93EB81FC8180819181A281B381880F8A
:100D6000991FAA1FBB1F880F991FAA1FBB1F880F9F
:100D7000991FAA1FBB1F9C01AD0180E092E1AAE769
:100D8000B0E0BC01CD010E941718DA01C90101973A
:100D90009A838983A0E4B0E0E0E4F0E080818F777B
:100DA0008C93E0E4F0E089819A81892F99278083F0
:100DB000E9E2F0E0898180830F900F900F900F900F
:100DC000CF91DF910895DF93CF930F92CDB7DEB728
:100DD0008983EBE2F0E08081882F90E08072907050
:100DE0000097B9F3ECE2F0E0898180830F90CF9116
:100DF000DF910895DF93CF93CDB7DEB7EBE2F0E05C
:100E000080818823DCF7ECE2F0E08081CF91DF91F4
:100E10000895DF93CF9300D00F92CDB7DEB79B83B9
:100E20008A8319820EC08981282F30E08A819B81B4
:100E3000FC01E20FF31F80810E94E30689818F5F2E
:100E400089838981282F30E08A819B81FC01E20F10
:100E5000F31F8081882339F70F900F900F90CF9167
:100E6000DF9108950F931F93DF93CF9300D000D0AD
:100E7000CDB7DEB79B838A8319828981282F30E022
:100E80008A819B818C01020F131F0E94FA06F801D0
:100E900080838981282F30E08A819B81FC01E20FC9
:100EA000F31F80811C82833211F0F1E0FC83898181
:100EB0008F5F89838C81882301F78981882F90E057
:100EC0009C01215030408A819B81FC01E20FF31F7D
:100ED00010820F900F900F900F90CF91DF911F9184
:100EE0000F9108951F920F920FB60F9211242F9316
:100EF0003F934F935F936F937F938F939F93AF93A2
:100F0000BF93EF93FF93DF93CF93CDB7DEB780917D
:100F10006C0090916D00009729F0E0916C00F091C9
:100F20006D000995CF91DF91FF91EF91BF91AF9146
:100F30009F918F917F916F915F914F913F912F91F1
:100F40000F900FBE0F901F9018951F920F920FB623
:100F50000F9211242F933F934F935F936F937F933F
:100F60008F939F93AF93BF93EF93FF93DF93CF93B1
:100F7000CDB7DEB780916C0090916D00009729F09D
:100F8000E0916C00F0916D000995CF91DF91FF9198
:100F9000EF91BF91AF919F918F917F916F915F91F1
:100FA0004F913F912F910F900FBE0F901F9018956A
:100FB0001F920F920FB60F9211242F933F934F93CE
:100FC0005F936F937F938F939F93AF93BF93EF93B1
:100FD000FF93DF93CF93CDB7DEB780916E009091F2
:100FE0006F00009729F0E0916E00F0916F00099575
:100FF000CF91DF91FF91EF91BF91AF919F918F9131
:101000007F916F915F914F913F912F910F900FBE04
:101010000F901F9018951F920F920FB60F921124E8
:101020002F933F934F935F936F937F938F939F93F0
:10103000AF93BF93EF93FF93DF93CF93CDB7DEB71B
:1010400080916E0090916F00009729F0E0916E0002
:10105000F0916F000995CF91DF91FF91EF91BF91D2
:10106000AF919F918F917F916F915F914F913F9140
:101070002F910F900FBE0F901F9018951F920F92F7
:101080000FB60F9211242F933F934F935F936F935B
:101090007F938F939F93AF93BF93EF93FF93DF93D0
:1010A000CF93CDB7DEB7809170009091710000971B
:1010B00029F0E0917000F09171000995CF91DF91D6
:1010C000FF91EF91BF91AF919F918F917F916F9120
:1010D0005F914F913F912F910F900FBE0F901F90F6
:1010E00018951F920F920FB60F9211242F933F93D2
:1010F0004F935F936F937F938F939F93AF93BF9320
:10110000EF93FF93DF93CF93CDB7DEB7809170005D
:1011100090917100009729F0E0917000F0917100BA
:101120000995CF91DF91FF91EF91BF91AF919F9181
:101130008F917F916F915F914F913F912F910F9080
:101140000FBE0F901F901895DF93CF9300D000D063
:10115000CDB7DEB79A838983E981FA818281282F0E
:1011600030E03C832B838B819C818130910571F031
:101170002B813C812230310571F08B819C8100975D
:1011800071F489819A810E941E0A09C089819A811D
:101190000E94C00A04C089819A810E94D50B0F90D9
:1011A0000F900F900F90CF91DF910895DF93CF9321
:1011B00000D00F92CDB7DEB789838981282F30E028
:1011C0003B832A838A819B818130910561F02A814A
:1011D0003B812230310551F08A819B81009741F497
:1011E0000E94770C05C00E94950C02C00E94C70C9B
:1011F0000F900F900F90CF91DF910895DF93CF93D1
:1012000000D000D00F92CDB7DEB789837B836A838D
:101210008981282F30E03D832C838C819D81813012
:10122000910581F02C813D812230310591F08C8136
:101230009D810097A1F48A819B8190936D0080939A
:101240006C000DC08A819B8190936F0080936E002B
:1012500006C08A819B8190937100809370000F90EB
:101260000F900F900F900F90CF91DF910895DF9323
:10127000CF9300D000D00F92CDB7DEB789837B83A8
:101280006A838981282F30E03D832C838C819D8166
:101290008130910571F02C813D812230310581F042
:1012A0008C819D81009781F4ECE5F0E08A81808358
:1012B0000BC0EAE4F0E08A819B819183808304C0C3
:1012C000E3E4F0E08A8180830F900F900F900F90FD
:1012D0000F90CF91DF9108950F931F93DF93CF93DA
:1012E00000D000D0CDB7DEB79A838983E981FA8137
:1012F0008281282F30E03C832B838B819C8181303D
:10130000910551F1EB81FC81E230F10509F470C0E7
:101310002B813C812115310509F087C00CE510E0D7
:10132000E981FA818081482F50E0CA019C01220F97
:10133000331FC9019695982F882797958795821B0B
:10134000930B840F951F24E630E0B9010E94031827
:10135000CB01F801808369C0E981FA818681882305
:1013600009F50AE410E0E981FA818081882F90E094
:10137000A0E0B0E02FEA32E140E050E0BC01CD0156
:101380000E94E417DC01CB0124E630E040E050E0AD
:10139000BC01CD010E941718DA01C901F80191833F
:1013A000808343C0E981FA8186818130F1F508E4C8
:1013B00010E0E981FA818081882F90E0A0E0B0E020
:1013C0002FEA32E140E050E0BC01CD010E94E41779
:1013D000DC01CB0124E630E040E050E0BC01CD016F
:1013E0000E941718DA01C901F801918380831DC09A
:1013F00003E410E0E981FA818081482F50E0CA01BE
:101400009C01220F331FC9019695982F8827979525
:101410008795821B930B840F951F24E630E0B9015A
:101420000E940318CB01F80180830F900F900F905A
:101430000F90CF91DF911F910F9108950F931F93FC
:10144000DF93CF9300D0CDB7DEB79A838983E2E5EF
:10145000F0E01082E981FA818381833029F50CE57F
:1014600010E0E981FA818081482F50E0CA019C0197
:10147000220F331FC9019695982F88279795879536
:10148000821B930B840F951F24E630E0B9010E9464
:101490000318CB01F8018083A7E3B0E0E7E3F0E0B5
:1014A000808188608C9307C0A3E5B0E0E3E5F0E0BD
:1014B000808180688C93E981FA818381882381F41B
:1014C000A9E5B0E0E9E5F0E0808181608C93A2E5D8
:1014D000B0E0E981FA81808191818F708C9313C093
:1014E000E981FA818381823071F4ACE5B0E0E98171
:1014F000FA81808191818C93A9E5B0E0E9E5F0E083
:10150000808182608C93A3E5B0E0E981FA818381D8
:10151000882F90E0817090700024969587950794AD
:10152000969587950794982F802D282FE981FA8129
:101530008581882F90E082959295907F9827807F73
:101540009827282BE981FA818381882F90E0827087
:10155000907095958795880F991F880F991F880F10
:10156000991F922F982BE981FA8184818770892BAA
:101570008C930F900F90CF91DF911F910F91089551
:101580000F931F93DF93CF9300D0CDB7DEB79A832D
:101590008983ECE4F0E011821082E6E4F0E08FEA67
:1015A00092E191838083E981FA818381833009F01C
:1015B00084C0E981FA8186818823F1F50AE410E08C
:1015C000E981FA818081882F90E0A0E0B0E02FEAE5
:1015D00032E140E050E0BC01CD010E94E417DC01A3
:1015E000CB0124E630E040E050E0BC01CD010E9498
:1015F0001718DA01C901F80191838083AFE4B0E0E4
:10160000EFE4F0E08081282FE981FA818581882F3D
:1016100090E0002496958795079496958795079472
:10162000982F802D822B8C93A1E3B0E0E1E3F0E0D2
:10163000808180628C934FC0E981FA8186818130FC
:1016400009F049C008E410E0E981FA818081882F1F
:1016500090E0A0E0B0E02FEA32E140E050E0BC01D1
:10166000CD010E94E417DC01CB0124E630E040E02C
:1016700050E0BC01CD010E941718DA01C901F80140
:1016800091838083AFE4B0E0EFE4F0E08081282F25
:10169000E981FA818581882F90E082959295907FEB
:1016A0009827807F9827822B8C93A1E3B0E0E1E319
:1016B000F0E0808180618C930EC0AFE4B0E0EFE495
:1016C000F0E0808188608C93AFE4B0E0EFE4F0E07C
:1016D000808184608C93E981FA818381882389F4F5
:1016E000A9E5B0E0E9E5F0E0808184608C93ACE4AA
:1016F000B0E0E981FA818081918111969C938E936B
:1017000015C0E981FA818381823081F4AAE4B0E0D6
:10171000E981FA818081918111969C938E93A9E54C
:10172000B0E0E9E5F0E0808180618C93AFE4B0E067
:10173000EFE4F0E08081282FE981FA818381882F0E
:1017400090E081709070880F991F822B8C93AEE48B
:10175000B0E0E981FA818381882F90E081709070F8
:1017600082959295907F9827807F9827282FE981EE
:10177000FA818381882F90E082709070959587958B
:10178000880F991F880F991F880F991F922F982BE8
:10179000E981FA8184818770892B8C930F900F9057
:1017A000CF91DF911F910F9108950F931F93DF93B6
:1017B000CF9300D0CDB7DEB79A838983E4E4F0E01D
:1017C0001082E981FA818381833029F503E410E0F6
:1017D000E981FA818081482F50E0CA019C01220FE3
:1017E000331FC9019695982F882797958795821B57
:1017F000930B840F951F24E630E0B9010E94031873
:10180000CB01F8018083A1E3B0E0E1E3F0E0808167
:1018100080688C9307C0A5E4B0E0E5E4F0E0808147
:1018200080688C93E981FA818381882381F4A9E51A
:10183000B0E0E9E5F0E0808180648C93A4E4B0E05E
:10184000E981FA81808191818F708C9313C0E98145
:10185000FA818381823071F4A3E4B0E0E981FA81F6
:10186000808191818C93A9E5B0E0E9E5F0E0808189
:1018700080688C93A5E4B0E0E981FA818381882FA8
:1018800090E08170907000249695879507949695C6
:1018900087950794982F802D282FE981FA818581DB
:1018A000882F90E082959295907F9827807F982747
:1018B000282BE981FA818381882F90E082709070D3
:1018C00095958795880F991F880F991F880F991FE5
:1018D000922F982BE981FA8184818770892B8C93D0
:1018E0000F900F90CF91DF911F910F910895DF938B
:1018F000CF93CDB7DEB7E3E5F0E01082E2E5F0E0AC
:101900001082ECE5F0E01082A9E5B0E0E9E5F0E056
:1019100080818D7F8C93A9E5B0E0E9E5F0E08081DE
:101920008E7F8C93CF91DF910895DF93CF93CDB7C6
:10193000DEB7EFE4F0E01082EEE4F0E01082ECE4D9
:10194000F0E011821082EAE4F0E011821082E8E413
:10195000F0E011821082E6E4F0E011821082A9E545
:10196000B0E0E9E5F0E080818F7E8C93A9E5B0E0FE
:10197000E9E5F0E08081877F8C93A9E5B0E0E9E5B7
:10198000F0E080818E7F8C93CF91DF910895DF937B
:10199000CF93CDB7DEB7E5E4F0E01082E4E4F0E009
:1019A0001082E3E4F0E01082A9E5B0E0E9E5F0E0C0
:1019B00080818F778C93A9E5B0E0E9E5F0E0808144
:1019C0008F7B8C93CF91DF910895DF93CF9300D0DD
:1019D000CDB7DEB79A838983A1E2B0E0E981FA81CD
:1019E00082818C93A0E2B0E0E981FA8181818C93BD
:1019F000A2E2B0E0E981FA818081880F8C93E6E56C
:101A0000F0E084E080830F900F90CF91DF910895F4
:101A1000DF93CF93CDB7DEB7E6E5F0E084EA8083CD
:101A2000E6E5F0E080818823DCF7CF91DF9108952F
:101A3000DF93CF93CDB7DEB7E6E5F0E084E98083AE
:101A4000CF91DF910895DF93CF930F92CDB7DEB79B
:101A50008983E3E2F0E089818083E6E5F0E084E8D1
:101A60008083E6E5F0E080818823DCF70F90CF915A
:101A7000DF910895DF93CF93CDB7DEB7E6E5F0E0D1
:101A800084EC8083E6E5F0E080818823DCF7E3E204
:101A9000F0E08081CF91DF910895DF93CF93CDB7B0
:101AA000DEB7E6E5F0E084E88083E6E5F0E08081FB
:101AB0008823DCF7E3E2F0E08081CF91DF910895A5
:101AC000DF93CF930F92CDB7DEB7E1E2F0E08081F4
:101AD000887F898389810F90CF91DF910895DF936B
:101AE000CF9300D000D00F92CDB7DEB789836A8341
:101AF0004B838981843008F0D5C08A81893008F011
:101B0000D1C08981282F30E03D832C838C819D8139
:101B10008130910509F443C02C813D81223031058B
:101B20002CF48C819D81009771F0BCC02C813D818B
:101B30002230310509F45FC08C819D81833091058D
:101B400009F485C0AFC08B818130A1F4AAE3B0E075
:101B5000EAE3F0E08081482F8A81282F30E081E09D
:101B600090E0022E02C0880F991F0A94E2F7842B9E
:101B70008C9398C0AAE3B0E0EAE3F0E08081482FBC
:101B80008A81282F30E081E090E0022E02C0880F89
:101B9000991F0A94E2F7809584238C9383C08B81EC
:101BA0008130A1F4A7E3B0E0E7E3F0E08081482FC3
:101BB0008A81282F30E081E090E0022E02C0880F59
:101BC000991F0A94E2F7842B8C936CC0A7E3B0E0D2
:101BD000E7E3F0E08081482F8A81282F30E081E020
:101BE00090E0022E02C0880F991F0A94E2F78095B8
:101BF00084238C9357C08B818130A1F4A4E3B0E09F
:101C0000E4E3F0E08081482F8A81282F30E081E0F2
:101C100090E0022E02C0880F991F0A94E2F7842BED
:101C20008C9340C0A4E3B0E0E4E3F0E08081482F6F
:101C30008A81282F30E081E090E0022E02C0880FD8
:101C4000991F0A94E2F7809584238C932BC08B8193
:101C50008130A1F4A1E3B0E0E1E3F0E08081482F1E
:101C60008A81282F30E081E090E0022E02C0880FA8
:101C7000991F0A94E2F7842B8C9314C0A1E3B0E07F
:101C8000E1E3F0E08081482F8A81282F30E081E075
:101C900090E0022E02C0880F991F0A94E2F7809507
:101CA00084238C930F900F900F900F900F90CF91F3
:101CB000DF910895DF93CF9300D000D00F92CDB77E
:101CC000DEB789836A834B838981843008F0D5C06D
:101CD0008A81893008F0D1C08981282F30E03D8386
:101CE0002C838C819D818130910509F443C02C8126
:101CF0003D81223031052CF48C819D81009771F05B
:101D0000BCC02C813D812230310509F45FC08C813B
:101D10009D818330910509F485C0AFC08B818130EE
:101D2000A1F4ABE3B0E0EBE3F0E08081482F8A81DF
:101D3000282F30E081E090E0022E02C0880F991F2A
:101D40000A94E2F7842B8C9398C0ABE3B0E0EBE30A
:101D5000F0E08081482F8A81282F30E081E090E0F8
:101D6000022E02C0880F991F0A94E2F780958423FF
:101D70008C9383C08B818130A1F4A8E3B0E0E8E3C9
:101D8000F0E08081482F8A81282F30E081E090E0C8
:101D9000022E02C0880F991F0A94E2F7842B8C93BD
:101DA0006CC0A8E3B0E0E8E3F0E08081482F8A81CE
:101DB000282F30E081E090E0022E02C0880F991FAA
:101DC0000A94E2F7809584238C9357C08B818130ED
:101DD000A1F4A5E3B0E0E5E3F0E08081482F8A813B
:101DE000282F30E081E090E0022E02C0880F991F7A
:101DF0000A94E2F7842B8C9340C0A5E3B0E0E5E3BE
:101E0000F0E08081482F8A81282F30E081E090E047
:101E1000022E02C0880F991F0A94E2F7809584234E
:101E20008C932BC08B818130A1F4A2E3B0E0E2E37C
:101E3000F0E08081482F8A81282F30E081E090E017
:101E4000022E02C0880F991F0A94E2F7842B8C930C
:101E500014C0A2E3B0E0E2E3F0E08081482F8A8181
:101E6000282F30E081E090E0022E02C0880F991FF9
:101E70000A94E2F7809584238C930F900F900F9033
:101E80000F900F90CF91DF910895DF93CF9300D003
:101E900000D00F92CDB7DEB789836A838981843001
:101EA00018F48A81893010F01D829BC08981282F07
:101EB00030E03C832B834B815C8141305105B1F193
:101EC0008B819C818230910534F42B813C812115DA
:101ED000310571F085C04B815C814230510509F4B8
:101EE00043C08B819C818330910509F45BC078C02D
:101EF000E9E3F0E08081482F50E08A81282F30E02C
:101F000081E090E002C0880F991F2A95E2F79A01BC
:101F1000282339238A81882F90E0A90102C0559592
:101F200047958A95E2F7CA018D835BC0E6E3F0E04E
:101F30008081482F50E08A81282F30E081E090E0B6
:101F400002C0880F991F2A95E2F79A0128233923A6
:101F50008A81882F90E0A90102C0559547958A95FE
:101F6000E2F7CA018D833DC0E3E3F0E08081482FB2
:101F700050E08A81282F30E081E090E002C0880F95
:101F8000991F2A95E2F79A01282339238A81882FFD
:101F900090E0A90102C0559547958A95E2F7CA01DC
:101FA0008D831FC0E0E3F0E08081482F50E08A81FC
:101FB000282F30E081E090E002C0880F991F2A9519
:101FC000E2F79A01282339238A81882F90E0A9011A
:101FD00002C0559547958A95E2F7CA018D8301C0E5
:101FE0001D828D810F900F900F900F900F90CF91C9
:101FF000DF910895DF93CF9300D000D0CDB7DEB747
:1020000089836A838981843090F58981282F30E023
:102010003C832B838B819C8181309105D1F02B8176
:102020003C81223031052CF48B819C81009761F03A
:102030001EC02B813C812230310581F08B819C8137
:102040008330910581F013C0EAE3F0E08A81808358
:102050000EC0E7E3F0E08A81808309C0E4E3F0E0AA
:102060008A81808304C0E1E3F0E08A8180830F905D
:102070000F900F900F90CF91DF910895DF93CF9342
:1020800000D000D0CDB7DEB789836A8389818430E0
:1020900090F58981282F30E03C832B838B819C81B4
:1020A00081309105D1F02B813C81223031052CF417
:1020B0008B819C81009761F01EC02B813C81223076
:1020C000310581F08B819C818330910581F013C0B3
:1020D000EBE3F0E08A8180830EC0E8E3F0E08A81E0
:1020E000808309C0E5E3F0E08A81808304C0E2E3F5
:1020F000F0E08A8180830F900F900F900F90CF9126
:10210000DF910895DF93CF9300D000D0CDB7DEB735
:1021100089838981843098F58981282F30E03C8338
:102120002B838B819C8181309105D1F02B813C8167
:10213000223031052CF48B819C81009761F01FC007
:102140002B813C812230310581F08B819C81833051
:10215000910581F014C0E9E3F0E090819A8310C00A
:10216000E6E3F0E020812A830BC0E3E3F0E0308176
:102170003A8306C0E0E3F0E080818A8301C01A82DE
:102180008A810F900F900F900F90CF91DF9108955B
:10219000DF93CF9300D000D00F92CDB7DEB7898305
:1021A0006A834B838981843008F022C18981282F7A
:1021B00030E03D832C838C819D818130910509F431
:1021C00058C0EC81FD81E230F10534F42C813D8171
:1021D0002115310571F00CC18C819D8182309105F2
:1021E00009F487C0EC81FD81E330F10509F4C1C039
:1021F000FFC08A818130A1F4AAE3B0E0EAE3F0E015
:102200008081482F8B81282F30E08FE090E0022ED4
:1022100002C0880F991F0A94E2F7842B8C93E8C0C0
:10222000AAE3B0E0EAE3F0E05081EAE3F0E06081A5
:102230008B81282F30E080EF90E002C0880F991F3B
:102240002A95E2F7482F8B81282F30E088E090E034
:10225000FC01E21BF30B9F0180EF90E0022E02C015
:10226000969587950A94E2F7842B862385238C9391
:10227000BFC08A818130A1F4A7E3B0E0E7E3F0E0DA
:102280008081482F8B81282F30E08FE090E0022E54
:1022900002C0880F991F0A94E2F7842B8C93A8C080
:1022A000A7E3B0E0E7E3F0E05081E7E3F0E060812E
:1022B0008B81282F30E080EF90E002C0880F991FBB
:1022C0002A95E2F7482F8B81282F30E088E090E0B4
:1022D000FC01E21BF30B9F0180EF90E0022E02C095
:1022E000969587950A94E2F7842B862385238C9311
:1022F0007FC08A818130A1F4A4E3B0E0E4E3F0E0A0
:102300008081482F8B81282F30E08FE090E0022ED3
:1023100002C0880F991F0A94E2F7842B8C9368C03F
:10232000A4E3B0E0E4E3F0E05081E4E3F0E06081B6
:102330008B81282F30E080EF90E002C0880F991F3A
:102340002A95E2F7482F8B81282F30E088E090E033
:10235000FC01E21BF30B9F0180EF90E0022E02C014
:10236000969587950A94E2F7842B862385238C9390
:102370003FC08A818130A1F4A1E3B0E0E1E3F0E065
:102380008081482F8B81282F30E08FE090E0022E53
:1023900002C0880F991F0A94E2F7842B8C9328C0FF
:1023A000A1E3B0E0E1E3F0E05081E1E3F0E060813F
:1023B0008B81282F30E080EF90E002C0880F991FBA
:1023C0002A95E2F7482F8B81282F30E088E090E0B3
:1023D000FC01E21BF30B9F0180EF90E0022E02C094
:1023E000969587950A94E2F7842B862385238C9310
:1023F0000F900F900F900F900F90CF91DF91089555
:10240000DF93CF9300D000D00F92CDB7DEB7898392
:102410006A834B838981843008F01EC18981282F0B
:1024200030E03D832C836C817D816130710509F43E
:1024300057C08C819D818230910534F42C813D817F
:102440002115310571F008C16C817D816230710503
:1024500009F485C08C819D818330910509F4BEC04B
:10246000FBC0ABE3B0E0EBE3F0E050818B81282FC1
:1024700030E080EF90E002C0880F991F2A95E2F7C4
:10248000482F8B81282F30E088E090E0BC01621B50
:10249000730B9B0180EF90E002C0969587952A957B
:1024A000E2F7842B58238A81282F30E08B81882FF4
:1024B00090E0B90102C0660F771F8A95E2F7CB0161
:1024C000482F8B81282F30E08FE090E0022E02C051
:1024D000880F991F0A94E2F78423852B8C93BCC044
:1024E000A8E3B0E0E8E3F0E050818B81282F30E0F2
:1024F00080EF90E002C0880F991F2A95E2F7482FDD
:102500008B81282F30E088E090E0BC01621B730BC8
:102510009B0180EF90E002C0969587952A95E2F79F
:10252000842B58238A81282F30E08B81882F90E0DC
:10253000B90102C0660F771F8A95E2F7CB01482FD9
:102540008B81282F30E08FE090E0022E02C0880FB0
:10255000991F0A94E2F78423852B8C937DC0A5E311
:10256000B0E0E5E3F0E050818B81282F30E080EF90
:1025700090E002C0880F991F2A95E2F7482F8B81BF
:10258000282F30E088E090E0BC01621B730B9B01B8
:1025900080EF90E002C0969587952A95E2F7842B0C
:1025A00058238A81282F30E08B81882F90E0B90151
:1025B00002C0660F771F8A95E2F7CB01482F8B8107
:1025C000282F30E08FE090E0022E02C0880F991F84
:1025D0000A94E2F78423852B8C933EC0A2E3B0E0FB
:1025E000E2E3F0E050818B81282F30E080EF90E033
:1025F00002C0880F991F2A95E2F7482F8B81282F58
:1026000030E088E090E0BC01621B730B9B0180EF1F
:1026100090E002C0969587952A95E2F7842B58237F
:102620008A81282F30E08B81882F90E0B90102C089
:10263000660F771F8A95E2F7CB01482F8B81282FF1
:1026400030E08FE090E0022E02C0880F991F0A94BC
:10265000E2F78423852B8C930F900F900F900F90AF
:102660000F90CF91DF910895DF93CF9300D000D0EA
:102670000F92CDB7DEB789836A838981843008F0F1
:102680009AC08981282F30E03D832C834C815D8165
:1026900041305105B1F18C819D818230910534F436
:1026A0002C813D812115310571F085C04C815D8102
:1026B0004230510509F443C08C819D8183309105DE
:1026C00009F45BC078C0EBE3F0E08081482F50E074
:1026D0008A81282F30E08FE090E002C0880F991F98
:1026E0002A95E2F79A01282339238A81882F90E0DE
:1026F000A90102C0569547958A95E2F7CA018B83D6
:102700005BC0E8E3F0E08081482F50E08A81282F09
:1027100030E08FE090E002C0880F991F2A95E2F721
:102720009A01282339238A81882F90E0A90102C0C9
:10273000569547958A95E2F7CA018B833DC0E5E33C
:10274000F0E08081482F50E08A81282F30E08FE030
:1027500090E002C0880F991F2A95E2F79A0128237A
:1027600039238A81882F90E0A90102C056954795A8
:102770008A95E2F7CA018B831FC0E2E3F0E0808113
:10278000482F50E08A81282F30E08FE090E002C08F
:10279000880F991F2A95E2F79A01282339238A8105
:1027A000882F90E0A90102C0569547958A95E2F7D7
:1027B000CA018B8301C01B828B810F900F900F90F9
:1027C0000F900F90CF91DF910895DF93CF93CDB706
:1027D000DEB781E063E041E00E946F0D81E060E0E0
:1027E00041E00E946F0D81E061E041E00E946F0DC9
:1027F0000E944114CF91DF910895DF93CF9300D0D1
:1028000000D000D0CDB7DEB789836A835C834B8369
:10281000EB81FC818A8180838B819C810E946C0981
:10282000CE0103960E94A4088981282F30E03E83C0
:102830002D838D819E81009731F02D813E81213045
:10284000310561F015C081E060E040E00E945A0E61
:1028500081E061E041E00E945A0E0AC081E060E040
:1028600041E00E945A0E81E061E040E00E945A0E71
:1028700026960FB6F894DEBF0FBECDBFCF91DF9185
:102880000895DF93CF93CDB7DEB781E060E040E0FD
:102890000E945A0E81E061E040E00E945A0ECF9102
:1028A000DF910895DF93CF9300D000D0CDB7DEB78E
:1028B0009A8389836B830E94080D0E94600D883083
:1028C00011F01C8228C089819A8180709770880FCE
:1028D000892F881F990B9195806A0E94230D0E9471
:1028E000600D883111F01C8216C089810E94230D71
:1028F0000E94600D883211F01C820DC08B810E94F5
:10290000230D0E94600D883211F01C8204C00E94C9
:10291000180D81E08C838C810F900F900F900F9099
:10292000CF91DF910895DF93CF9300D000D00F9225
:10293000CDB7DEB79A8389837C836B830E94080DB1
:102940000E94600D883011F01D8244C089819A81F7
:1029500080709770880F892F881F990B9195806AD6
:102960000E94230D0E94600D883111F01D8232C03B
:1029700089810E94230D0E94600D883211F01D8212
:1029800029C00E94080D0E94600D803111F01D8247
:1029900021C089819A8180709770880F892F881F44
:1029A000990B9195816A0E94230D0E94600D8034DD
:1029B00011F01D820FC00E944D0DEB81FC818083C0
:1029C0000E94600D883511F01D8204C00E94180D10
:1029D00081E08D838D810F900F900F900F900F905D
:1029E000CF91DF910895DF93CF93CDB7DEB783E02A
:1029F00062E041E00E946F0D83E062E040E00E94EF
:102A00005A0ECF91DF910895DF93CF93CDB7DEB704
:102A100083E062E041E00E945A0ECF91DF91089579
:102A2000DF93CF93CDB7DEB783E062E040E00E9452
:102A30005A0ECF91DF910895DF93CF9300D0CDB799
:102A4000DEB79A83898386E60E94E3060E94FA062F
:102A5000863621F00E94FA068231C1F789819A8177
:102A60000E9432070F900F90CF91DF910895DF936E
:102A7000CF9300D000D000D0CDB7DEB79C838B833E
:102A80007E836D831A8219821A8216C08A81882FEA
:102A900090E0FC01EE58FF4F20818A81882F90E062
:102AA000FC01E858FF4F8081281719F081E08983E5
:102AB00006C08A818F5F8A838A81853038F386E6F3
:102AC0000E94E3060E94FA068636E1F78981882390
:102AD00021F48FEF0E94E30603C080E00E94E3062A
:102AE000898126960FB6F894DEBF0FBECDBFCF9179
:102AF000DF910895DF93CF930F92CDB7DEB782E7D2
:102B000090E00E941C1588E790E00E941C1582E767
:102B100090E028E730E0B9010E943715882321F4BE
:102B20000E949B15198202C081E0898389810F90E0
:102B3000CF91DF910895DF93CF930F92CDB7DEB79A
:102B40001982198214C08981882F90E080509E4F8D
:102B5000AC018981882F90E0FC01EE58FF4F208165
:102B6000CA01622F0E94521489818F5F89838981F3
:102B7000853048F30F90CF91DF910895DF93CF9385
:102B80000F92CDB7DEB71982198213C08981882FC1
:102B900090E080509E4FAC018981882F90E09C018D
:102BA00028583F4FCA01B9010E94931489818F5F51
:102BB00089838981853050F30F90CF91DF910895FB
:102BC000DF93CF9300D0CDB7DEB79A838983298175
:102BD0003A8180E064E6A9010E94FD1389819A810F
:102BE0000E94A40880917F008230E0F30E9441148B
:102BF00081E06EE87BE50E94370980917F00833099
:102C0000E0F329813A8181E064E6A9010E94FD1385
:102C100081E062EE74EE0E94370980917F0085307A
:102C2000E0F381E00E94D6080E94411410927F00D8
:102C30000F900F90CF91DF910895DF93CF93CDB791
:102C4000DEB70E947A158130E1F3CF91DF910895CC
:102C5000DF93CF9300D0CDB7DEB79A8389830E94EC
:102C60000415E981FA8182EE94EE91838083898153
:102C70009A810E94A40880917F008830E0F30E942E
:102C8000101510927F0081E00E94D6080F900F90DF
:102C9000CF91DF910895DF93CF93CDB7DEB78091C9
:102CA0007F008F5F80937F00CF91DF910895DF9346
:102CB000CF930F92CDB7DEB782E790E00E941C154C
:102CC0000E94BE1582E790E028E730E0B9010E943B
:102CD0003715882369F410927E0086E60E94E30689
:102CE0000E94FA068636E1F70E94FA0689830DC033
:102CF00080917E008F5F80937E0080917E00833084
:102D000018F082E1898301C0198289810F90CF91E7
:102D1000DF910895DF93CF93CDB7DEB7EA970FB673
:102D2000F894DEBF0FBECDBF89E0FE017A96DF01C9
:102D3000282F1D922A95E9F780E895E2A0E0B0E0FF
:102D40008A8F9B8FAC8FBD8F83E08E8F87E0FE01D3
:102D5000B396DF01282F1D922A95E9F784E68BA30D
:102D600083E08EA383E08FA382E088A787E0FE0143
:102D7000BA96DF01282F1D922A95E9F782EE94EE8C
:102D80009BA78AA781E08CA782E08DA785E08EA70C
:102D9000CE01C1969FAB8EABA8E6B0E0B9AFA8AFAD
:102DA000B3E0BAAFE8ADF9AD008028AD39AD2F5F23
:102DB0003F4F39AF28AFAEA9BFA90C92EEA9FFA92A
:102DC0003196FFABEEABFAADF150FAAF2AAD22234C
:102DD00049F72BE436E181E0B9010E94FE087894BE
:102DE0000E94E5130E94F314CE0183960E94A4086A
:102DF000CE01C1960E94E50CCE014A960E944F0674
:102E000080E090E0A0E8BFE38D8B9E8BAF8BB88F06
:102E10006D897E898F89988D2BEA3AEA4AE250E4DF
:102E20000E941F02DC01CB01898B9A8BAB8BBC8B80
:102E300069897A898B899C8920E030E040E85FE3EA
:102E40000E94250488231CF481E0888B91C0698945
:102E50007A898B899C8920E030E04FE753E40E9417
:102E6000C50318160CF07BC06D897E898F89988DFB
:102E700020E030E04AE754E40E941903DC01CB0172
:102E80008C879D87AE87BF876C857D858E859F8566
:102E900020E030E04AEF54E40E941F02DC01CB0145
:102EA00088879987AA87BB87688579858A859B8566
:102EB00020E030E040E85FE30E94250488232CF402
:102EC00081E090E09F838E833FC0688579858A8505
:102ED0009B8520E03FEF4FE757E40E94C50318169B
:102EE0004CF56C857D858E859F8520E030E040E245
:102EF00051E40E941F02DC01CB01BC01CD010E9404
:102F00004900DC01CB019F838E830FC088EC90E0E9
:102F10009D838C838C819D810197F1F79D838C83A8
:102F20008E819F8101979F838E838E819F810097E1
:102F300069F724C0688579858A859B850E94490048
:102F4000DC01CB019F838E838E819F819B838A834B
:102F50008A819B810197F1F79B838A830FC06989DE
:102F60007A898B899C890E944900DC01CB01888B7E
:102F70008889898389818A95F1F789830E941D1642
:102F80000E945716898F898DA82FB0E0BDABACABDE
:102F9000ECA9FDA9E131F10579F02CA93DA9223177
:102FA000310569F08CA99DA98031910549F7CE01C1
:102FB0008A960E94E015E4CF0E941D16E1CFCE0153
:102FC0008A960E942816DCCF629FD001739FF00181
:102FD000829FE00DF11D649FE00DF11D929FF00DA9
:102FE000839FF00D749FF00D659FF00D9927729FE0
:102FF000B00DE11DF91F639FB00DE11DF91FBD016B
:10300000CF0111240895AA1BBB1B51E107C0AA1FC1
:10301000BB1FA617B70710F0A61BB70B881F991F79
:103020005A95A9F780959095BC01CD010895A1E22C
:103030001A2EAA1BBB1BFD010DC0AA1FBB1FEE1F32
:10304000FF1FA217B307E407F50720F0A21BB30B7D
:10305000E40BF50B661F771F881F991F1A9469F7F9
:1030600060957095809590959B01AC01BD01CF0155
:1030700008952F923F924F925F926F927F928F921C
:103080009F92AF92BF92CF92DF92EF92FF920F93F7
:103090001F93CF93DF93CDB7DEB7CA1BDB0B0FB601
:1030A000F894DEBF0FBECDBF09942A8839884888BE
:1030B0005F846E847D848C849B84AA84B984C88454
:1030C000DF80EE80FD800C811B81AA81B981CE0F4B
:1030D000D11D0FB6F894DEBF0FBECDBFED01089530
:0430E000F894FFCF92
:0C30E4000000000000000000019000004F
:00000001FF
