:100000000C942A000C9447000C9447000C94470071
:100010000C948D080C945A080C9447000C942708F3
:100020000C9447000C94F4070C94C1070C948E07B1
:100030000C9447000C9447000C9447000C94470024
:100040000C9447000C9447000C9447000C94470014
:100050000C94470011241FBECFE5D8E0DEBFCDBF12
:1000600012E0A0E6B0E0ECEBF1E402C005900D92E6
:10007000A03EB107D9F712E0A0EEB2E001C01D9298
:10008000A13FB107E1F70E94BB1F0C94DC200C9448
:100090000000EF92FF920F931F937B018C0120E0F1
:1000A00030E040E05FE40E94490388238CF0C801FF
:1000B000B70120E030E040E05FE40E94C1010E940F
:1000C000A9039B01AC01205030404040504806C07D
:1000D000C801B7010E94A9039B01AC01B901CA0183
:1000E0001F910F91FF90EF900895A0E0B0E0EBE733
:1000F000F0E00C947420DC012B01FA019C91923009
:1001000008F439C1EB018881823008F433C194309E
:1001100069F4843009F02FC111969C91119789815F
:10012000981709F428C1A8EDB1E025C1843009F47D
:1001300021C18230A9F4923009F01DC19A01AD01AC
:1001400088E0EA010990AE01E90109929E0181501F
:10015000C1F7E201898111969C918923818308C1AD
:10016000923009F407C112962D903C901397EB0141
:100170008A819B811496AD90BD90CD90DC901797AD
:10018000EC80FD800E811F819101281B390BB90184
:1001900037FF04C066277727621B730B6032710537
:1001A0000CF061C0121613066CF537014801062EDB
:1001B00004C096948794779467940A94D2F721E0C8
:1001C00030E040E050E004C0220F331F441F551FB1
:1001D0006A95D2F721503040404050402E213F21B7
:1001E00040235123211531054105510521F021E01E
:1001F00030E040E050E079018A01E628F72808293C
:1002000019293CC0232BD1F1260E371E350146019A
:10021000062E04C096948794779467940A94D2F734
:1002200021E030E040E050E004C0220F331F441FC3
:10023000551F6A95D2F721503040404050402A2146
:100240003B214C215D21211531054105510521F04E
:1002500021E030E040E050E059016A01A628B728CB
:10026000C828D9280BC0821593052CF01C01AA249C
:10027000BB24650103C0EE24FF24870111969C91E5
:10028000D20111968C91981709F445C0992339F041
:10029000A80197012A193B094C095D0906C0A6016E
:1002A00095012E193F09400B510B57FD08C01182D3
:1002B0003382228224833583468357831DC081E0A5
:1002C00081833382228288279927DC01821B930B4A
:1002D000A40BB50B84839583A683B7830DC0220F2F
:1002E000331F441F551F24833583468357838281E0
:1002F000938101979383828324813581468157813D
:10030000DA01C9010197A109B1098F5F9F4FAF4F72
:10031000BF4328F30BC0918333822282EA0CFB1C7B
:100320000C1D1D1DE482F5820683178383E0808304
:10033000248135814681578157FF1AC0C901AA27F8
:1003400097FDA095BA2F81709070A070B0705695EF
:10035000479537952795822B932BA42BB52B848318
:100360009583A683B7838281938101969383828349
:10037000DF0101C0D201CD01CDB7DEB7E2E10C94BF
:100380009020A0E2B0E0E7ECF1E00C9480206983DB
:100390007A838B839C832D833E834F835887E9E048
:1003A000EE2EF12CEC0EFD1ECE010196B7010E943F
:1003B0009A058E010F5E1F4FCE010596B8010E946F
:1003C0009A058A8991E089278A8BC701B801AE0115
:1003D000475E5F4F0E9475000E94C504A096E6E04C
:1003E0000C949C20A0E2B0E0E8EFF1E00C948020B7
:1003F00069837A838B839C832D833E834F835887C5
:10040000F9E0EF2EF12CEC0EFD1ECE010196B701A6
:100410000E949A058E010F5E1F4FCE010596B8010E
:100420000E949A05C701B801AE01475E5F4F0E9466
:1004300075000E94C504A096E6E00C949C20A0E202
:10044000B0E0E5E2F2E00C94742069837A838B8358
:100450009C832D833E834F835887CE010196BE0136
:10046000675F7F4F0E949A05CE010596BE016F5EC1
:100470007F4F0E949A059985923088F08989823051
:10048000C8F0943019F4823051F404C0843029F457
:10049000923081F488ED91E0C6C0923049F420E0BA
:1004A0009A858A89981321E02A87CE010996BBC0D4
:1004B000823049F420E09A858A89981321E02A8BBA
:1004C000CE014196B0C02D843E844F8458886D88FB
:1004D0007E888F88988CEE24FF248701AA24BB2471
:1004E000650140E050E060E070E0E0E0F0E0C10174
:1004F00081709070892BE9F0E60CF71C081D191D1E
:100500009A01AB012A0D3B1D4C1D5D1D80E090E062
:10051000A0E0B0E0E614F7040805190520F481E036
:1005200090E0A0E0B0E0BA01A901480F591F6A1F8E
:100530007B1FAA0CBB1CCC1CDD1C97FE08C081E0F5
:1005400090E0A0E0B0E0A82AB92ACA2ADB2A3196B6
:10055000E032F10549F0660C771C881C991C569412
:10056000479437942794C3CFFA85EA892B893C892D
:100570008B859C85280F391F2E5F3F4F17C0CA01FE
:1005800081709070892B61F016950795F794E79428
:1005900080E090E0A0E0B0E8E82AF92A0A2B1B2BC3
:1005A00076956795579547952F5F3F4F77FDE7CF36
:1005B0000CC0440F551F661F771F17FD4160EE0CDE
:1005C000FF1C001F111F21503040403090E05907A0
:1005D00090E0690790E4790760F32B8F3C8FDB0193
:1005E000CA018F779070A070B07080349105A1051A
:1005F000B10561F447FD0AC0E114F10401051105DC
:1006000029F0405C5F4F6F4F7F4F40781A8EFE1786
:1006100011F081E08A8F4D8F5E8F6F8F78A383E01A
:10062000898FCE0149960E94C504A096E2E10C9400
:100630009020A8E1B0E0EFE1F3E00C948020698322
:100640007A838B839C832D833E834F83588789E0F5
:10065000E82EF12CEC0EFD1ECE010196B7010E9492
:100660009A058E010F5E1F4FCE010596B8010E94BC
:100670009A058985823040F08989823028F0C70147
:10068000B8010E94120601C08FEF6896E6E00C9454
:100690009C20A8E1B0E0EFE4F3E00C9480206983B3
:1006A0007A838B839C832D833E834F83588789E095
:1006B000E82EF12CEC0EFD1ECE010196B7010E9432
:1006C0009A058E010F5E1F4FCE010596B8010E945C
:1006D0009A058985823040F08989823028F0C701E7
:1006E000B8010E94120601C08FEF6896E6E00C94F4
:1006F0009C20A8E1B0E0EFE7F3E00C948020698350
:100700007A838B839C832D833E834F83588789E034
:10071000E82EF12CEC0EFD1ECE010196B7010E94D1
:100720009A058E010F5E1F4FCE010596B8010E94FB
:100730009A058985823040F08989823028F0C70186
:10074000B8010E94120601C081E06896E6E00C94B0
:100750009C20ACE0B0E0EFEAF3E00C9484206983E5
:100760007A838B839C83CE010196BE016B5F7F4FA2
:100770000E949A058D81823061F1823050F184307F
:1007800021F48E81882351F12EC02F81388537FDC9
:1007900020C06E812F3131051CF06623F9F023C093
:1007A0008EE190E0821B930B29853A854B855C8511
:1007B00004C056954795379527958A95D2F76623B5
:1007C000B1F050954095309521953F4F4F4F5F4F79
:1007D0000EC020E030E040E050E009C02FEF3FEFD6
:1007E0004FEF5FE704C020E030E040E050E8B9019F
:1007F000CA012C96E2E00C94A020A8E0B0E0E3E06F
:10080000F4E00C947C207B018C016115710581055D
:10081000910519F482E0898360C083E089838EE1C9
:10082000C82ED12CDC82CB82ED82FE820F8318870A
:10083000C801B7010E947604FC013197F7FF3BC065
:10084000222733272E1B3F0B57016801022E04C0BD
:10085000D694C794B794A7940A94D2F740E050E096
:1008600060E070E081E090E0A0E0B0E004C0880FBC
:10087000991FAA1FBB1F2A95D2F70197A109B10999
:100880008E219F21A023B1230097A105B10521F05E
:1008900041E050E060E070E04A295B296C297D2945
:1008A0004D835E836F8378878EE190E08E1B9F0B74
:1008B0009C838B8312C0309781F00E2E04C0EE0C07
:1008C000FF1C001F111F0A94D2F7ED82FE820F83D6
:1008D0001887CE1ADF0ADC82CB821A82CE010196FB
:1008E0000E94C5042896EAE00C949820EF92FF92AB
:1008F0000F931F937B018C0180E0E81680E0F806DF
:1009000081E0080780E0180788F48FEFE816F1040B
:100910000105110531F028F088E090E0A0E0B0E09A
:1009200017C080E090E0A0E0B0E012C080E0E816E0
:1009300080E0F80680E0080781E0180728F088E1E9
:1009400090E0A0E0B0E004C080E190E0A0E0B0E082
:1009500020E230E040E050E0281B390B4A0B5B0BF3
:1009600004C016950795F794E7948A95D2F7F70196
:10097000E052FE4F8081281B310941095109C9010C
:100980001F910F91FF90EF900895DF92EF92FF92E9
:100990000F931F93FC01E480F58006811781D180BD
:1009A0008081823048F480E090E0A0E1B0E0E82A65
:1009B000F92A0A2B1B2BA5C0843009F49FC0823072
:1009C00021F4EE24FF24870105C0E114F1040105A0
:1009D000110519F4E0E0F0E096C0628173819FEFA9
:1009E000623879070CF05BC022E83FEF261B370B1B
:1009F0002A3131052CF020E030E040E050E02AC000
:100A0000B801A701022E04C07695679557954795C2
:100A10000A94D2F781E090E0A0E0B0E004C0880F33
:100A2000991FAA1FBB1F2A95D2F70197A109B109E7
:100A30008E219F21A023B1230097A105B10521F0AC
:100A400081E090E0A0E0B0E09A01AB01282B392BC7
:100A50004A2B5B2BDA01C9018F779070A070B070C0
:100A600080349105A105B10539F427FF09C0205C48
:100A70003F4F4F4F5F4F04C0215C3F4F4F4F5F4F81
:100A8000E0E0F0E02030A0E03A07A0E04A07A0E470
:100A90005A0710F0E1E0F0E079018A0127C06038E0
:100AA000710564F5FB01E158FF4FD801C7018F774D
:100AB0009070A070B07080349105A105B10539F433
:100AC000E7FE0DC080E490E0A0E0B0E004C08FE35A
:100AD00090E0A0E0B0E0E80EF91E0A1F1B1F17FF10
:100AE00005C016950795F794E794319687E016951B
:100AF0000795F794E7948A95D1F705C0EE24FF2473
:100B00008701EFEFF0E06E2F679566276795902FCE
:100B10009F77D794DD24D7948E2F8695492F462B27
:100B2000582F5D29B701CA011F910F91FF90EF90D7
:100B3000DF900895FC01DB01408151812281622F09
:100B40006F7770E0221F2227221F9381892F880F41
:100B5000822B282F30E0991F9927991F11969C937B
:100B6000119721153105A9F541155105610571054B
:100B700011F482E037C082E89FEF13969C938E9326
:100B800012979A01AB0167E0220F331F441F551FD4
:100B90006A95D1F783E08C930DC0220F331F441F59
:100BA000551F12968D919C911397019713969C93C4
:100BB0008E931297203080E0380780E0480780E469
:100BC000580758F314962D933D934D935C931797C4
:100BD00008952F3F310579F44115510561057105DF
:100BE00019F484E08C93089564FF03C081E08C9332
:100BF00012C01C9210C02F57304013963C932E9376
:100C0000129783E08C9387E0440F551F661F771F70
:100C10008A95D1F7706414964D935D936D937C9390
:100C2000179708951F93DC01FB019C91923008F403
:100C300047C08081823008F443C0943051F411964B
:100C40001C91843099F58181682F70E0611B7109D6
:100C50003FC0843021F0923031F48230B9F181818B
:100C6000882389F12DC011961C9111978230F1F0E3
:100C700081811817D9F412962D913C911397828196
:100C800093818217930794F028173907BCF01496C4
:100C90008D919D910D90BC91A02D2481358146812F
:100CA0005781281739074A075B0718F4112341F0C9
:100CB0000AC082179307A407B50740F4112319F05F
:100CC00061E070E005C06FEF7FEF02C060E070E0B0
:100CD000CB011F910895DF93CF9300D000D0CDB703
:100CE000DEB79C838B831A821982EBE2F0E082E00C
:100CF0008083AAE2B0E0EB81FC818481847088610A
:100D00008C93A0E4B0E0EB81FC818681882F90E099
:100D10000024969587950794969587950794982F24
:100D2000802D282F2068EB81FC818781882F90E01F
:100D300082959295907F9827807F9827282BEB812A
:100D4000FC818581882F90E0880F991F880F991F5B
:100D5000880F991F282BEB81FC818481882F90E0DC
:100D600083709070880F991F822B8C93EB81FC818C
:100D70008681813051F4A0E4B0E0E0E4F0E09081BD
:100D8000EB81FC818085892B8C93EB81FC818081B8
:100D90009181A281B381880F991FAA1FBB1F880F61
:100DA000991FAA1FBB1F880F991FAA1FBB1F9C0159
:100DB000AD0180E092E1AAE7B0E0BC01CD010E9464
:100DC0005220DA01C90101979A838983A0E4B0E037
:100DD000E0E4F0E080818F778C93E0E4F0E08981BB
:100DE0009A81892F99278083E9E2F0E089818083C5
:100DF0000F900F900F900F90CF91DF910895DF9398
:100E0000CF930F92CDB7DEB78983EBE2F0E080811C
:100E1000882F90E0807290700097B9F3ECE2F0E0D8
:100E2000898180830F90CF91DF910895DF93CF93D5
:100E3000CDB7DEB7EBE2F0E080818823DCF7ECE2AF
:100E4000F0E08081CF91DF910895DF93CF9300D0C0
:100E50000F92CDB7DEB79B838A8319820EC089813A
:100E6000282F30E08A819B81FC01E20FF31F8081F3
:100E70000E94FF0689818F5F89838981282F30E056
:100E80008A819B81FC01E20FF31F8081882339F75F
:100E90000F900F900F90CF91DF9108950F931F93B4
:100EA000DF93CF9300D000D0CDB7DEB79B838A838A
:100EB00019828981282F30E08A819B818C01020F61
:100EC000131F0E941607F80180838981282F30E0C4
:100ED0008A819B81FC01E20FF31F80811C82833297
:100EE00011F0F1E0FC8389818F5F89838C818823F5
:100EF00001F78981882F90E09C01215030408A8140
:100F00009B81FC01E20FF31F10820F900F900F9056
:100F10000F90CF91DF911F910F9108951F920F9223
:100F20000FB60F9211242F933F934F935F936F93BC
:100F30007F938F939F93AF93BF93EF93FF93DF9331
:100F4000CF93CDB7DEB78091E0029091E102009798
:100F500029F0E091E002F091E1020995CF91DF9153
:100F6000FF91EF91BF91AF919F918F917F916F9181
:100F70005F914F913F912F910F900FBE0F901F9057
:100F800018951F920F920FB60F9211242F933F9333
:100F90004F935F936F937F938F939F93AF93BF9381
:100FA000EF93FF93DF93CF93CDB7DEB78091E0024D
:100FB0009091E102009729F0E091E002F091E102C6
:100FC0000995CF91DF91FF91EF91BF91AF919F91E3
:100FD0008F917F916F915F914F913F912F910F90E2
:100FE0000FBE0F901F9018951F920F920FB60F9281
:100FF00011242F933F934F935F936F937F938F931E
:101000009F93AF93BF93EF93FF93DF93CF93CDB7AE
:10101000DEB78091E2029091E302009729F0E0911F
:10102000E202F091E3020995CF91DF91FF91EF91F8
:10103000BF91AF919F918F917F916F915F914F91F0
:101040003F912F910F900FBE0F901F9018951F92F8
:101050000F920FB60F9211242F933F934F935F93EC
:101060006F937F938F939F93AF93BF93EF93FF9370
:10107000DF93CF93CDB7DEB78091E2029091E30288
:10108000009729F0E091E202F091E3020995CF91F7
:10109000DF91FF91EF91BF91AF919F918F917F91E0
:1010A0006F915F914F913F912F910F900FBE0F90D5
:1010B0001F9018951F920F920FB60F9211242F9325
:1010C0003F934F935F936F937F938F939F93AF93D0
:1010D000BF93EF93FF93DF93CF93CDB7DEB78091AC
:1010E000E4029091E502009729F0E091E402F0918A
:1010F000E5020995CF91DF91FF91EF91BF91AF91FB
:101100009F918F917F916F915F914F913F912F911F
:101110000F900FBE0F901F9018951F920F920FB651
:101120000F9211242F933F934F935F936F937F936D
:101130008F939F93AF93BF93EF93FF93DF93CF93DF
:10114000CDB7DEB78091E4029091E502009729F0D7
:10115000E091E402F091E5020995CF91DF91FF91D2
:10116000EF91BF91AF919F918F917F916F915F911F
:101170004F913F912F910F900FBE0F901F90189598
:10118000DF93CF9300D000D0CDB7DEB79A838983A9
:10119000E981FA818281282F30E03C832B838B8187
:1011A0009C818130910571F02B813C812230310589
:1011B00071F08B819C81009771F489819A810E94E2
:1011C0003A0A09C089819A810E94DC0A04C0898197
:1011D0009A810E94F10B0F900F900F900F90CF917A
:1011E000DF910895DF93CF9300D00F92CDB7DEB794
:1011F00089838981282F30E03B832A838A819B81E0
:101200008130910561F02A813B812230310551F016
:101210008A819B81009741F40E94930C05C00E9433
:10122000B10C02C00E94E30C0F900F900F90CF9171
:10123000DF910895DF93CF9300D000D00F92CDB708
:10124000DEB789837B836A838981282F30E03D83E1
:101250002C838C819D818130910581F02C813D8191
:101260002230310591F08C819D810097A1F48A8113
:101270009B819093E1028093E0020DC08A819B8163
:101280009093E3028093E20206C08A819B8190934F
:10129000E5028093E4020F900F900F900F900F9053
:1012A000CF91DF910895DF93CF9300D000D00F92BC
:1012B000CDB7DEB789837B836A838981282F30E0AD
:1012C0003D832C838C819D818130910571F02C812F
:1012D0003D812230310581F08C819D81009781F420
:1012E000ECE5F0E08A8180830BC0EAE4F0E08A81DB
:1012F0009B819183808304C0E3E4F0E08A81808352
:101300000F900F900F900F900F90CF91DF91089555
:101310000F931F93DF93CF9300D000D0CDB7DEB7EC
:101320009A838983E981FA818281282F30E03C8386
:101330002B838B819C818130910551F1EB81FC8164
:10134000E230F10509F470C02B813C812115310593
:1013500009F087C00CE510E0E981FA818081482F0F
:1013600050E0CA019C01220F331FC9019695982FA6
:10137000882797958795821B930B840F951F24E6EA
:1013800030E0B9010E943E20CB01F801808369C0A2
:10139000E981FA818681882309F50AE410E0E98170
:1013A000FA818081882F90E0A0E0B0E02FEA32E15E
:1013B00040E050E0BC01CD010E941F20DC01CB01C8
:1013C00024E630E040E050E0BC01CD010E94522014
:1013D000DA01C901F8019183808343C0E981FA8170
:1013E00086818130F1F508E410E0E981FA8180819D
:1013F000882F90E0A0E0B0E02FEA32E140E050E03A
:10140000BC01CD010E941F20DC01CB0124E630E0AD
:1014100040E050E0BC01CD010E945220DA01C90138
:10142000F801918380831DC003E410E0E981FA8113
:101430008081482F50E0CA019C01220F331FC9014F
:101440009695982F882797958795821B930B840FE5
:10145000951F24E630E0B9010E943E20CB01F8013F
:1014600080830F900F900F900F90CF91DF911F917D
:101470000F9108950F931F93DF93CF9300D0CDB7B3
:10148000DEB79A838983E2E5F0E01082E981FA8190
:101490008381833029F50CE510E0E981FA818081B0
:1014A000482F50E0CA019C01220F331FC9019695B5
:1014B000982F882797958795821B930B840F951FEC
:1014C00024E630E0B9010E943E20CB01F801808380
:1014D000A7E3B0E0E7E3F0E0808188608C9307C089
:1014E000A3E5B0E0E3E5F0E0808180688C93E981DA
:1014F000FA818381882381F4A9E5B0E0E9E5F0E091
:10150000808181608C93A2E5B0E0E981FA818081DD
:1015100091818F708C9313C0E981FA81838182302D
:1015200071F4ACE5B0E0E981FA81808191818C931E
:10153000A9E5B0E0E9E5F0E0808182608C93A3E565
:10154000B0E0E981FA818381882F90E0817090700A
:101550000024969587950794969587950794982FDC
:10156000802D282FE981FA818581882F90E082954E
:101570009295907F9827807F9827282BE981FA8180
:101580008381882F90E08270907095958795880F61
:10159000991F880F991F880F991F922F982BE98107
:1015A000FA8184818770892B8C930F900F90CF9153
:1015B000DF911F910F9108950F931F93DF93CF93A6
:1015C00000D0CDB7DEB79A838983ECE4F0E01182D6
:1015D0001082E6E4F0E08FEA92E191838083E98172
:1015E000FA818381833009F084C0E981FA818681A0
:1015F0008823F1F50AE410E0E981FA818081882FDF
:1016000090E0A0E0B0E02FEA32E140E050E0BC0121
:10161000CD010E941F20DC01CB0124E630E040E038
:1016200050E0BC01CD010E945220DA01C901F8014D
:1016300091838083AFE4B0E0EFE4F0E08081282F75
:10164000E981FA818581882F90E00024969587951D
:101650000794969587950794982F802D822B8C93CD
:10166000A1E3B0E0E1E3F0E0808180628C934FC0C1
:10167000E981FA818681813009F049C008E410E0EF
:10168000E981FA818081882F90E0A0E0B0E02FEA24
:1016900032E140E050E0BC01CD010E941F20DC019E
:1016A000CB0124E630E040E050E0BC01CD010E94D7
:1016B0005220DA01C901F80191838083AFE4B0E0E0
:1016C000EFE4F0E08081282FE981FA818581882F7D
:1016D00090E082959295907F9827807F9827822B23
:1016E0008C93A1E3B0E0E1E3F0E0808180618C9332
:1016F0000EC0AFE4B0E0EFE4F0E0808188608C934E
:10170000AFE4B0E0EFE4F0E0808184608C93E981A5
:10171000FA818381882389F4A9E5B0E0E9E5F0E066
:10172000808184608C93ACE4B0E0E981FA818081AF
:10173000918111969C938E9315C0E981FA818381E2
:10174000823081F4AAE4B0E0E981FA81808191815C
:1017500011969C938E93A9E5B0E0E9E5F0E08081D5
:1017600080618C93AFE4B0E0EFE4F0E08081282F5B
:10177000E981FA818381882F90E081709070880FD1
:10178000991F822B8C93AEE4B0E0E981FA818381CA
:10179000882F90E08170907082959295907F982725
:1017A000807F9827282FE981FA818381882F90E014
:1017B0008270907095958795880F991F880F991F53
:1017C000880F991F922F982BE981FA818481877065
:1017D000892B8C930F900F90CF91DF911F910F91D8
:1017E00008950F931F93DF93CF9300D0CDB7DEB74B
:1017F0009A838983E4E4F0E01082E981FA818381AD
:10180000833029F503E410E0E981FA818081482FD3
:1018100050E0CA019C01220F331FC9019695982FF1
:10182000882797958795821B930B840F951F24E635
:1018300030E0B9010E943E20CB01F8018083A1E392
:10184000B0E0E1E3F0E0808180688C9307C0A5E41C
:10185000B0E0E5E4F0E0808180688C93E981FA8172
:101860008381882381F4A9E5B0E0E9E5F0E0808197
:1018700080648C93A4E4B0E0E981FA818081918155
:101880008F708C9313C0E981FA818381823071F467
:10189000A3E4B0E0E981FA81808191818C93A9E58C
:1018A000B0E0E9E5F0E0808180688C93A5E4B0E0E9
:1018B000E981FA818381882F90E081709070002403
:1018C000969587950794969587950794982F802DE0
:1018D000282FE981FA818581882F90E08295929561
:1018E000907F9827807F9827282BE981FA81838130
:1018F000882F90E08270907095958795880F991F3A
:10190000880F991F880F991F922F982BE981FA81D0
:1019100084818770892B8C930F900F90CF91DF91EA
:101920001F910F910895DF93CF93CDB7DEB7E3E515
:10193000F0E01082E2E5F0E01082ECE5F0E01082E9
:10194000A9E5B0E0E9E5F0E080818D7F8C93A9E521
:10195000B0E0E9E5F0E080818E7F8C93CF91DF915C
:101960000895DF93CF93CDB7DEB7EFE4F0E01082B8
:10197000EEE4F0E01082ECE4F0E011821082EAE4A0
:10198000F0E011821082E8E4F0E011821082E6E4D7
:10199000F0E011821082A9E5B0E0E9E5F0E0808195
:1019A0008F7E8C93A9E5B0E0E9E5F0E08081877F48
:1019B0008C93A9E5B0E0E9E5F0E080818E7F8C931F
:1019C000CF91DF910895DF93CF93CDB7DEB7E5E4F4
:1019D000F0E01082E4E4F0E01082E3E4F0E0108252
:1019E000A9E5B0E0E9E5F0E080818F778C93A9E587
:1019F000B0E0E9E5F0E080818F7B8C93CF91DF91BF
:101A00000895DF93CF9300D000D00F92CDB7DEB70B
:101A100089836A834B838981843008F0D5C08A81A9
:101A2000893008F0D1C08981282F30E03D832C8394
:101A30008C819D818130910509F443C02C813D81C9
:101A4000223031052CF48C819D81009771F0BCC04F
:101A50002C813D812230310509F45FC08C819D814C
:101A60008330910509F485C0AFC08B818130A1F42A
:101A7000AAE3B0E0EAE3F0E08081482F8A81282FD2
:101A800030E081E090E0022E02C0880F991F0A9496
:101A9000E2F7842B8C9398C0AAE3B0E0EAE3F0E08D
:101AA0008081482F8A81282F30E081E090E0022E4B
:101AB00002C0880F991F0A94E2F7809584238C93C3
:101AC00083C08B818130A1F4A7E3B0E0E7E3F0E0CD
:101AD0008081482F8A81282F30E081E090E0022E1B
:101AE00002C0880F991F0A94E2F7842B8C936CC074
:101AF000A7E3B0E0E7E3F0E08081482F8A81282F58
:101B000030E081E090E0022E02C0880F991F0A9415
:101B1000E2F7809584238C9357C08B818130A1F4A8
:101B2000A4E3B0E0E4E3F0E08081482F8A81282F2D
:101B300030E081E090E0022E02C0880F991F0A94E5
:101B4000E2F7842B8C9340C0A4E3B0E0E4E3F0E040
:101B50008081482F8A81282F30E081E090E0022E9A
:101B600002C0880F991F0A94E2F7809584238C9312
:101B70002BC08B818130A1F4A1E3B0E0E1E3F0E080
:101B80008081482F8A81282F30E081E090E0022E6A
:101B900002C0880F991F0A94E2F7842B8C9314C01B
:101BA000A1E3B0E0E1E3F0E08081482F8A81282FB3
:101BB00030E081E090E0022E02C0880F991F0A9465
:101BC000E2F7809584238C930F900F900F900F90E5
:101BD0000F90CF91DF910895DF93CF9300D000D085
:101BE0000F92CDB7DEB789836A834B8389818430B6
:101BF00008F0D5C08A81893008F0D1C08981282FAA
:101C000030E03D832C838C819D818130910509F4E6
:101C100043C02C813D81223031052CF48C819D8183
:101C2000009771F0BCC02C813D812230310509F450
:101C30005FC08C819D818330910509F485C0AFC060
:101C40008B818130A1F4ABE3B0E0EBE3F0E0808185
:101C5000482F8A81282F30E081E090E0022E02C0D8
:101C6000880F991F0A94E2F7842B8C9398C0ABE3FA
:101C7000B0E0EBE3F0E08081482F8A81282F30E04C
:101C800081E090E0022E02C0880F991F0A94E2F7CB
:101C9000809584238C9383C08B818130A1F4A8E349
:101CA000B0E0E8E3F0E08081482F8A81282F30E01F
:101CB00081E090E0022E02C0880F991F0A94E2F79B
:101CC000842B8C936CC0A8E3B0E0E8E3F0E0808163
:101CD000482F8A81282F30E081E090E0022E02C058
:101CE000880F991F0A94E2F7809584238C9357C03C
:101CF0008B818130A1F4A5E3B0E0E5E3F0E08081E1
:101D0000482F8A81282F30E081E090E0022E02C027
:101D1000880F991F0A94E2F7842B8C9340C0A5E3A7
:101D2000B0E0E5E3F0E08081482F8A81282F30E0A1
:101D300081E090E0022E02C0880F991F0A94E2F71A
:101D4000809584238C932BC08B818130A1F4A2E3F6
:101D5000B0E0E2E3F0E08081482F8A81282F30E074
:101D600081E090E0022E02C0880F991F0A94E2F7EA
:101D7000842B8C9314C0A2E3B0E0E2E3F0E0808116
:101D8000482F8A81282F30E081E090E0022E02C0A7
:101D9000880F991F0A94E2F7809584238C930F9003
:101DA0000F900F900F900F90CF91DF910895DF93D8
:101DB000CF9300D000D00F92CDB7DEB789836A836E
:101DC0008981843018F48A81893010F01D829BC08B
:101DD0008981282F30E03C832B834B815C8141300B
:101DE0005105B1F18B819C818230910534F42B81B6
:101DF0003C812115310571F085C04B815C814230F9
:101E0000510509F443C08B819C818330910509F40D
:101E10005BC078C0E9E3F0E08081482F50E08A8120
:101E2000282F30E081E090E002C0880F991F2A95AA
:101E3000E2F79A01282339238A81882F90E0A901AB
:101E400002C0559547958A95E2F7CA018D835BC01C
:101E5000E6E3F0E08081482F50E08A81282F30E0CF
:101E600081E090E002C0880F991F2A95E2F79A015D
:101E7000282339238A81882F90E0A90102C0559533
:101E800047958A95E2F7CA018D833DC0E3E3F0E010
:101E90008081482F50E08A81282F30E081E090E057
:101EA00002C0880F991F2A95E2F79A012823392347
:101EB0008A81882F90E0A90102C0559547958A959F
:101EC000E2F7CA018D831FC0E0E3F0E08081482F74
:101ED00050E08A81282F30E081E090E002C0880F36
:101EE000991F2A95E2F79A01282339238A81882F9E
:101EF00090E0A90102C0559547958A95E2F7CA017D
:101F00008D8301C01D828D810F900F900F900F90D7
:101F10000F90CF91DF910895DF93CF9300D000D041
:101F2000CDB7DEB789836A838981843090F5898152
:101F3000282F30E03C832B838B819C81813091055D
:101F4000D1F02B813C81223031052CF48B819C8196
:101F5000009761F01EC02B813C812230310581F059
:101F60008B819C818330910581F013C0EAE3F0E01E
:101F70008A8180830EC0E7E3F0E08A81808309C014
:101F8000E4E3F0E08A81808304C0E1E3F0E08A8149
:101F900080830F900F900F900F90CF91DF91089555
:101FA000DF93CF9300D000D0CDB7DEB789836A83AB
:101FB0008981843090F58981282F30E03C832B8300
:101FC0008B819C8181309105D1F02B813C81223025
:101FD00031052CF48B819C81009761F01EC02B8110
:101FE0003C812230310581F08B819C8183309105C9
:101FF00081F013C0EBE3F0E08A8180830EC0E8E358
:10200000F0E08A81808309C0E5E3F0E08A81808383
:1020100004C0E2E3F0E08A8180830F900F900F907C
:102020000F90CF91DF910895DF93CF9300D000D030
:10203000CDB7DEB789838981843098F58981282FCF
:1020400030E03C832B838B819C8181309105D1F0E2
:102050002B813C81223031052CF48B819C810097AF
:1020600061F01FC02B813C812230310581F08B81D2
:102070009C818330910581F014C0E9E3F0E0908108
:102080009A8310C0E6E3F0E020812A830BC0E3E3EB
:10209000F0E030813A8306C0E0E3F0E080818A839B
:1020A00001C01A828A810F900F900F900F90CF91EC
:1020B000DF910895DF93CF9300D000D00F92CDB77A
:1020C000DEB789836A834B838981843008F022C11B
:1020D0008981282F30E03D832C838C819D81813044
:1020E000910509F458C0EC81FD81E230F10534F42A
:1020F0002C813D812115310571F00CC18C819D81B0
:102100008230910509F487C0EC81FD81E330F1054F
:1021100009F4C1C0FFC08A818130A1F4AAE3B0E014
:10212000EAE3F0E08081482F8B81282F30E08FE0B8
:1021300090E0022E02C0880F991F0A94E2F7842BC8
:102140008C93E8C0AAE3B0E0EAE3F0E05081EAE370
:10215000F0E060818B81282F30E080EF90E002C0BA
:10216000880F991F2A95E2F7482F8B81282F30E09E
:1021700088E090E0FC01E21BF30B9F0180EF90E010
:10218000022E02C0969587950A94E2F7842B862347
:1021900085238C93BFC08A818130A1F4A7E3B0E08E
:1021A000E7E3F0E08081482F8B81282F30E08FE03B
:1021B00090E0022E02C0880F991F0A94E2F7842B48
:1021C0008C93A8C0A7E3B0E0E7E3F0E05081E7E339
:1021D000F0E060818B81282F30E080EF90E002C03A
:1021E000880F991F2A95E2F7482F8B81282F30E01E
:1021F00088E090E0FC01E21BF30B9F0180EF90E090
:10220000022E02C0969587950A94E2F7842B8623C6
:1022100085238C937FC08A818130A1F4A4E3B0E050
:10222000E4E3F0E08081482F8B81282F30E08FE0BD
:1022300090E0022E02C0880F991F0A94E2F7842BC7
:102240008C9368C0A4E3B0E0E4E3F0E05081E4E301
:10225000F0E060818B81282F30E080EF90E002C0B9
:10226000880F991F2A95E2F7482F8B81282F30E09D
:1022700088E090E0FC01E21BF30B9F0180EF90E00F
:10228000022E02C0969587950A94E2F7842B862346
:1022900085238C933FC08A818130A1F4A1E3B0E013
:1022A000E1E3F0E08081482F8B81282F30E08FE040
:1022B00090E0022E02C0880F991F0A94E2F7842B47
:1022C0008C9328C0A1E3B0E0E1E3F0E05081E1E3CA
:1022D000F0E060818B81282F30E080EF90E002C039
:1022E000880F991F2A95E2F7482F8B81282F30E01D
:1022F00088E090E0FC01E21BF30B9F0180EF90E08F
:10230000022E02C0969587950A94E2F7842B8623C5
:1023100085238C930F900F900F900F900F90CF917B
:10232000DF910895DF93CF9300D000D00F92CDB707
:10233000DEB789836A834B838981843008F01EC1AC
:102340008981282F30E03D832C836C817D81613031
:10235000710509F457C08C819D818230910534F458
:102360002C813D812115310571F008C16C817D8181
:102370006230710509F485C08C819D81833091059F
:1023800009F4BEC0FBC0ABE3B0E0EBE3F0E050818A
:102390008B81282F30E080EF90E002C0880F991FDA
:1023A0002A95E2F7482F8B81282F30E088E090E0D3
:1023B000BC01621B730B9B0180EF90E002C09695FD
:1023C00087952A95E2F7842B58238A81282F30E0BD
:1023D0008B81882F90E0B90102C0660F771F8A9524
:1023E000E2F7CB01482F8B81282F30E08FE090E07F
:1023F000022E02C0880F991F0A94E2F78423852BCE
:102400008C93BCC0A8E3B0E0E8E3F0E050818B819E
:10241000282F30E080EF90E002C0880F991F2A95A6
:10242000E2F7482F8B81282F30E088E090E0BC0154
:10243000621B730B9B0180EF90E002C0969587951D
:102440002A95E2F7842B58238A81282F30E08B814C
:10245000882F90E0B90102C0660F771F8A95E2F7D6
:10246000CB01482F8B81282F30E08FE090E0022EA7
:1024700002C0880F991F0A94E2F78423852B8C935E
:102480007DC0A5E3B0E0E5E3F0E050818B81282F2B
:1024900030E080EF90E002C0880F991F2A95E2F7A4
:1024A000482F8B81282F30E088E090E0BC01621B30
:1024B000730B9B0180EF90E002C0969587952A955B
:1024C000E2F7842B58238A81282F30E08B81882FD4
:1024D00090E0B90102C0660F771F8A95E2F7CB0141
:1024E000482F8B81282F30E08FE090E0022E02C031
:1024F000880F991F0A94E2F78423852B8C933EC0A2
:10250000A2E3B0E0E2E3F0E050818B81282F30E0DD
:1025100080EF90E002C0880F991F2A95E2F7482FBC
:102520008B81282F30E088E090E0BC01621B730BA8
:102530009B0180EF90E002C0969587952A95E2F77F
:10254000842B58238A81282F30E08B81882F90E0BC
:10255000B90102C0660F771F8A95E2F7CB01482FB9
:102560008B81282F30E08FE090E0022E02C0880F90
:10257000991F0A94E2F78423852B8C930F900F9078
:102580000F900F900F90CF91DF910895DF93CF932D
:1025900000D000D00F92CDB7DEB789836A838981DE
:1025A000843008F09AC08981282F30E03D832C8345
:1025B0004C815D8141305105B1F18C819D8182302A
:1025C000910534F42C813D812115310571F085C0D0
:1025D0004C815D814230510509F443C08C819D815D
:1025E0008330910509F45BC078C0EBE3F0E08081B3
:1025F000482F50E08A81282F30E08FE090E002C021
:10260000880F991F2A95E2F79A01282339238A8196
:10261000882F90E0A90102C0569547958A95E2F768
:10262000CA018B835BC0E8E3F0E08081482F50E073
:102630008A81282F30E08FE090E002C0880F991F38
:102640002A95E2F79A01282339238A81882F90E07E
:10265000A90102C0569547958A95E2F7CA018B8376
:102660003DC0E5E3F0E08081482F50E08A81282FCB
:1026700030E08FE090E002C0880F991F2A95E2F7C2
:102680009A01282339238A81882F90E0A90102C06A
:10269000569547958A95E2F7CA018B831FC0E2E3FE
:1026A000F0E08081482F50E08A81282F30E08FE0D1
:1026B00090E002C0880F991F2A95E2F79A0128231B
:1026C00039238A81882F90E0A90102C05695479549
:1026D0008A95E2F7CA018B8301C01B828B810F9020
:1026E0000F900F900F900F90CF91DF910895DF938F
:1026F000CF93CDB7DEB72E970FB6F894DEBF0FBEDF
:10270000CDBF83E064E041E00E94010D83E065E01D
:1027100041E00E94010D80E090E0A0EAB1E48B87E7
:102720009C87AD87BE876B857C858D859E8520E0E7
:1027300030E04AEF54E40E941F02DC01CB018F839A
:102740009887A987BA876F81788589859A8520E0DF
:1027500030E040E85FE30E94790388232CF481E0B5
:1027600090E09E838D833FC06F81788589859A85AF
:1027700020E03FEF4FE757E40E94190318164CF58D
:102780006B857C858D859E8520E030E040E251E4BC
:102790000E941F02DC01CB01BC01CD010E94490057
:1027A000DC01CB019E838D830FC088EC90E09C837D
:1027B0008B838B819C810197F1F79C838B838D8127
:1027C0009E8101979E838D838D819E81009769F7FD
:1027D00014C06F81788589859A850E944900DC0143
:1027E000CB019E838D838D819E819A83898389818C
:1027F0009A810197F1F79A83898382E06FEF0E94B3
:102800008C0F88E30E9413148CE00E94131481E063
:102810000E9413142E960FB6F894DEBF0FBECDBFE4
:10282000CF91DF910895DF93CF93CDB7DEB7E997CE
:102830000FB6F894DEBF0FBECDBF89AF83E064E072
:1028400040E00E94EC0D80E090E0A0E8BFE38DAB9B
:102850009EABAFABB8AF6DA97EA98FA998AD20E0B4
:1028600030E04AEF54E40E941F02DC01CB0189AB47
:102870009AABABABBCAB69A97AA98BA99CA920E0A8
:1028800030E040E85FE30E94790388232CF481E084
:1028900090E098AB8FA73FC069A97AA98BA99CA9A2
:1028A00020E03FEF4FE757E40E94190318164CF55C
:1028B0006DA97EA98FA998AD20E030E040E251E4F7
:1028C0000E941F02DC01CB01BC01CD010E94490026
:1028D000DC01CB0198AB8FA70FC088EC90E09EA7DE
:1028E0008DA78DA59EA50197F1F79EA78DA78FA512
:1028F00098A9019798AB8FA78FA598A9009769F71A
:1029000014C069A97AA98BA99CA90E944900DC017D
:10291000CB0198AB8FA78FA598A99CA78BA78BA558
:102920009CA50197F1F79CA78BA783E065E041E0A8
:102930000E94EC0D80E090E0A0E8BFE38FA398A791
:10294000A9A7BAA76FA178A589A59AA520E030E02C
:102950004AEF54E40E941F02DC01CB018BA39CA32D
:10296000ADA3BEA36BA17CA18DA19EA120E030E010
:1029700040E85FE30E94790388232CF481E090E033
:102980009AA389A33FC06BA17CA18DA19EA120E049
:102990003FEF4FE757E40E94190318164CF56FA15B
:1029A00078A589A59AA520E030E040E251E40E9494
:1029B0001F02DC01CB01BC01CD010E944900DC01FA
:1029C000CB019AA389A30FC088EC90E098A38F8FC6
:1029D0008F8D98A10197F1F798A38F8F89A19AA164
:1029E00001979AA389A389A19AA1009769F714C0B6
:1029F0006BA17CA18DA19EA10E944900DC01CB01AD
:102A00009AA389A389A19AA19E8F8D8F8D8D9E8D6A
:102A10000197F1F79E8F8D8F82E069AD0E94D00FF4
:102A200080E090E0A0E8BFE3898F9A8FAB8FBC8FE6
:102A3000698D7A8D8B8D9C8D20E030E04AEF54E4D7
:102A40000E941F02DC01CB018D8B9E8BAF8BB88F58
:102A50006D897E898F89988D20E030E040E85FE3C2
:102A60000E94790388232CF481E090E09C8B8B8B6F
:102A70003FC06D897E898F89988D20E03FEF4FE7B9
:102A800057E40E94190318164CF5698D7A8D8B8DC9
:102A90009C8D20E030E040E251E40E941F02DC0106
:102AA000CB01BC01CD010E944900DC01CB019C8B14
:102AB0008B8B0FC088EC90E09A8B898B89899A89DF
:102AC0000197F1F79A8B898B8B899C8901979C8B55
:102AD0008B8B8B899C89009769F714C06D897E89DF
:102AE0008F89988D0E944900DC01CB019C8B8B8BD8
:102AF0008B899C89988B8F878F8598890197F1F7AF
:102B0000988B8F8783E065E040E00E94EC0D80E0C9
:102B100090E0A0E8BFE38B879C87AD87BE876B857D
:102B20007C858D859E8520E030E04AEF54E40E944C
:102B30001F02DC01CB018F839887A987BA876F8139
:102B4000788589859A8520E030E040E85FE30E943F
:102B5000790388232CF481E090E09E838D833FC02D
:102B60006F81788589859A8520E03FEF4FE757E4AC
:102B70000E94190318164CF56B857C858D859E8502
:102B800020E030E040E251E40E941F02DC01CB0172
:102B9000BC01CD010E944900DC01CB019E838D83E5
:102BA0000FC088EC90E09C838B838B819C81019784
:102BB000F1F79C838B838D819E8101979E838D830A
:102BC0008D819E81009769F714C06F817885898512
:102BD0009A850E944900DC01CB019E838D838D8103
:102BE0009E819A83898389819A810197F1F79A83DB
:102BF0008983E9960FB6F894DEBF0FBECDBFCF91A3
:102C0000DF910895DF93CF93CDB7DEB7E9970FB685
:102C1000F894DEBF0FBECDBF89AF83E064E041E032
:102C20000E94EC0D80E090E0A0E8BFE38DAB9EAB8E
:102C3000AFABB8AF6DA97EA98FA998AD20E030E009
:102C40004AEF54E40E941F02DC01CB0189AB9AAB2E
:102C5000ABABBCAB69A97AA98BA99CA920E030E0F9
:102C600040E85FE30E94790388232CF481E090E040
:102C700098AB8FA73FC069A97AA98BA99CA920E02E
:102C80003FEF4FE757E40E94190318164CF56DA962
:102C90007EA98FA998AD20E030E040E251E40E9487
:102CA0001F02DC01CB01BC01CD010E944900DC0107
:102CB000CB0198AB8FA70FC088EC90E09EA78DA7A3
:102CC0008DA59EA50197F1F79EA78DA78FA598A921
:102CD000019798AB8FA78FA598A9009769F714C0A3
:102CE00069A97AA98BA99CA90E944900DC01CB01A2
:102CF00098AB8FA78FA598A99CA78BA78BA59CA500
:102D00000197F1F79CA78BA783E065E041E00E9463
:102D1000EC0D80E090E0A0E8BFE38FA398A7A9A7FF
:102D2000BAA76FA178A589A59AA520E030E04AEF5F
:102D300054E40E941F02DC01CB018BA39CA3ADA332
:102D4000BEA36BA17CA18DA19EA120E030E040E854
:102D50005FE30E94790388232CF481E090E09AA33A
:102D600089A33FC06BA17CA18DA19EA120E03FEF74
:102D70004FE757E40E94190318164CF56FA178A588
:102D800089A59AA520E030E040E251E40E941F02AC
:102D9000DC01CB01BC01CD010E944900DC01CB016B
:102DA0009AA389A30FC088EC90E098A38F8F8F8D92
:102DB00098A10197F1F798A38F8F89A19AA1019704
:102DC0009AA389A389A19AA1009769F714C06BA15E
:102DD0007CA18DA19EA10E944900DC01CB019AA398
:102DE00089A389A19AA19E8F8D8F8D8D9E8D01972C
:102DF000F1F79E8F8D8F82E069AD0E94D00F80E049
:102E000090E0A0E8BFE3898F9A8FAB8FBC8F698D6C
:102E10007A8D8B8D9C8D20E030E04AEF54E40E9447
:102E20001F02DC01CB018D8B9E8BAF8BB88F6D8920
:102E30007E898F89988D20E030E040E85FE30E9432
:102E4000790388232CF481E090E09C8B8B8B3FC02E
:102E50006D897E898F89988D20E03FEF4FE757E499
:102E60000E94190318164CF5698D7A8D8B8D9C8DF7
:102E700020E030E040E251E40E941F02DC01CB017F
:102E8000BC01CD010E944900DC01CB019C8B8B8BE6
:102E90000FC088EC90E09A8B898B89899A89019779
:102EA000F1F79A8B898B8B899C8901979C8B8B8BF3
:102EB0008B899C89009769F714C06D897E898F89F9
:102EC000988D0E944900DC01CB019C8B8B8B8B89F8
:102ED0009C89988B8F878F8598890197F1F7988BBC
:102EE0008F8783E065E040E00E94EC0D80E090E099
:102EF000A0E8BFE38B879C87AD87BE876B857C8509
:102F00008D859E8520E030E04AEF54E40E941F0248
:102F1000DC01CB018F839887A987BA876F81788579
:102F200089859A8520E030E040E85FE30E947903DC
:102F300088232CF481E090E09E838D833FC06F81D5
:102F4000788589859A8520E03FEF4FE757E40E9416
:102F5000190318164CF56B857C858D859E8520E0C0
:102F600030E040E251E40E941F02DC01CB01BC01D1
:102F7000CD010E944900DC01CB019E838D830FC0EF
:102F800088EC90E09C838B838B819C810197F1F787
:102F90009C838B838D819E8101979E838D838D8100
:102FA0009E81009769F714C06F81788589859A851D
:102FB0000E944900DC01CB019E838D838D819E811F
:102FC0009A83898389819A810197F1F79A8389830A
:102FD0008091E7028F5F8093E702E9960FB6F8943D
:102FE000DEBF0FBECDBFCF91DF910895DF93CF93AA
:102FF00000D00F92CDB7DEB79B838A8319821982E6
:103000000EC08981282F30E08A819B81FC01E20F6C
:10301000F31F80810E94021689818F5F89838981D5
:10302000282F30E08A819B81FC01E20FF31F808111
:10303000882339F70F900F900F90CF91DF9108956B
:10304000DF93CF93CDB7DEB760970FB6F894DEBFAE
:103050000FBECDBF8F87688B8F850E94021680912F
:10306000E70281508093E70280E090E0AFEAB3E4AA
:103070008B879C87AD87BE876B857C858D859E857C
:1030800020E030E04AEF54E40E941F02DC01CB0153
:103090008F839887A987BA876F81788589859A8574
:1030A00020E030E040E85FE30E94790388232CF4BD
:1030B00081E090E09E838D833FC06F817885898514
:1030C0009A8520E03FEF4FE757E40E941903181656
:1030D0004CF56B857C858D859E8520E030E040E257
:1030E00051E40E941F02DC01CB01BC01CD010E9412
:1030F0004900DC01CB019E838D830FC088EC90E0FA
:103100009C838B838B819C810197F1F79C838B83BC
:103110008D819E8101979E838D838D819E810097F5
:1031200069F714C06F81788589859A850E94490066
:10313000DC01CB019E838D838D819E819A8389835F
:1031400089819A810197F1F79A8389838091E602B8
:103150009091E702692F0E94661988890E940216E1
:1031600060960FB6F894DEBF0FBECDBFCF91DF9152
:103170000895DF93CF93CDB7DEB763970FB6F8947A
:10318000DEBF0FBECDBF998B888B7B8B6A8B1F8672
:103190001F8687C08F85282F30E088899989FC0198
:1031A000E20FF31F80810E9402168A899B89CC015D
:1031B000A0E0B0E0BC01CD010E94FD03DC01CB0129
:1031C0008B879C87AD87BE876B857C858D859E852B
:1031D00020E030E04AEF54E40E941F02DC01CB0102
:1031E0008F839887A987BA876F81788589859A8523
:1031F00020E030E040E85FE30E94790388232CF46C
:1032000081E090E09E838D833FC06F8178858985C2
:103210009A8520E03FEF4FE757E40E941903181604
:103220004CF56B857C858D859E8520E030E040E205
:1032300051E40E941F02DC01CB01BC01CD010E94C0
:103240004900DC01CB019E838D830FC088EC90E0A8
:103250009C838B838B819C810197F1F79C838B836B
:103260008D819E8101979E838D838D819E810097A4
:1032700069F714C06F81788589859A850E94490015
:10328000DC01CB019E838D838D819E819A8389830E
:1032900089819A810197F1F79A8389838F858F5F5E
:1032A0008F878F85282F30E088899989FC01E20F6C
:1032B000F31F8081882309F06DCF63960FB6F894D1
:1032C000DEBF0FBECDBFCF91DF910895DF93CF93C7
:1032D00000D000D00F92CDB7DEB78A836B838A818E
:1032E000282F30E03D832C838C819D818130910596
:1032F000C1F02C813D81223031052CF48C819D81DF
:10330000009761F019C02C813D812230310569F0B0
:103310008C819D818330910561F00EC08B81898302
:103320000BC08B81805C898307C08B81805F898320
:1033300003C08B81805B8983898180680E9413141C
:103340008A818093E6028B818093E7020F900F9031
:103350000F900F900F90CF91DF910895DF93CF934F
:1033600000D000D0CDB7DEB789836A835C834B83FE
:1033700089816A810E9466198B819C810E94F6175F
:103380000F900F900F900F90CF91DF910895DF93E2
:10339000CF93CDB7DEB762970FB6F894DEBF0FBEFE
:1033A000CDBF9A8B898B89899A899E012F5F3F4F68
:1033B000B9014AE050E00E94AB20CE0101960E9484
:1033C000F61762960FB6F894DEBF0FBECDBFCF9151
:1033D000DF910895DF93CF93CDB7DEB781E00E94F0
:1033E0001314CF91DF910895DF93CF93CDB7DEB75C
:1033F00061970FB6F894DEBF0FBECDBF8F87798B74
:10340000688B88899989CC01A0E0B0E0BC01CD012E
:103410000E94FD03DC01CB018B879C87AD87BE87B3
:103420006B857C858D859E8520E030E04AEF54E4F5
:103430000E941F02DC01CB018F839887A987BA877E
:103440006F81788589859A8520E030E040E85FE3E8
:103450000E94790388232CF481E090E09E838D8381
:103460003FC06F81788589859A8520E03FEF4FE7DF
:1034700057E40E94190318164CF56B857C858D85E1
:103480009E8520E030E040E251E40E941F02DC0112
:10349000CB01BC01CD010E944900DC01CB019E8320
:1034A0008D830FC088EC90E09C838B838B819C8103
:1034B0000197F1F79C838B838D819E8101979E8379
:1034C0008D838D819E81009769F714C06F81788507
:1034D00089859A850E944900DC01CB019E838D83FA
:1034E0008D819E819A83898389819A810197F1F7E1
:1034F0009A8389838091E802883131F41092E8023E
:1035000082E00E94131412C08F85813021F48CE177
:103510000E9413140BC08F85882341F488E10E9418
:1035200013148091E8028F5F8093E80261960FB6D2
:10353000F894DEBF0FBECDBFCF91DF910895DF932A
:10354000CF9300D00F92CDB7DEB719821B8243C054
:1035500081E060E00E948C0F8B81982F9C5F81E05E
:10356000692F41E00E94010D8B81882F90E09C0122
:103570002C5F3F4F81E090E002C0880F991F2A9591
:10358000E2F78095898381E069810E94D00F1A82D9
:103590001CC081E06A810E94D70E882399F48A8139
:1035A000882F90E0880F991F880F991F982F8B8183
:1035B000890F8F5F0E94F01A0F900F900F90CF919C
:1035C000DF9108958A818F5F8A838A81843008F32E
:1035D0008B818F5F8B838B81843008F4B9CFB6CF1A
:1035E000DF93CF9300D000D0CDB7DEB78A838A8136
:1035F000282F30E03C832B838B819C818830910580
:1036000009F470C02B813C81293031055CF58B8138
:103610009C818430910509F459C02B813C8125306F
:1036200031059CF48B819C818230910509F448C05E
:103630002B813C81233031050CF045C08B819C816E
:103640008130910509F439C067C02B813C81263057
:10365000310509F441C08B819C81873091050CF0C4
:103660003EC037C02B813C812C30310509F446C067
:103670008B819C818D3091055CF42B813C812A30BB
:103680003105B1F18B819C818B309105A4F52DC062
:103690002B813C812E303105B9F18B819C818E309C
:1036A00091057CF12B813C812F30310579F18B81A3
:1036B0009C818031910569F12FC087E089832EC0FC
:1036C00088E089832BC089E0898328C08FE28983C1
:1036D00025C084E0898322C085E089831FC086E0FD
:1036E00089831CC08AE2898319C081E0898316C05E
:1036F00082E0898313C083E0898310C08DE28983CF
:103700000DC08DE089830AC0198208C08DE38983CA
:1037100005C08BE2898302C08A81898389810F90E9
:103720000F900F900F90CF91DF910895DF93CF937B
:10373000CDB7DEB762970FB6F894DEBF0FBECDBF30
:103740009A8B898B1F8629893A8980E060E0A901DC
:103750000E94AE1981E06DE00E9466198FE00E9420
:10376000131492C00E949F1A888B88898A30A0F413
:103770008F85853088F48F85282F30E08889805D9B
:10378000F901E751FD4F80838889805D6AE20E94DC
:1037900020188F858F5F8F8780E090E0A6E1B3E4EB
:1037A0008B879C87AD87BE876B857C858D859E8545
:1037B00020E030E04AEF54E40E941F02DC01CB011C
:1037C0008F839887A987BA876F81788589859A853D
:1037D00020E030E040E85FE30E94790388232CF486
:1037E00081E090E09E838D833FC06F8178858985DD
:1037F0009A8520E03FEF4FE757E40E94190318161F
:103800004CF56B857C858D859E8520E030E040E21F
:1038100051E40E941F02DC01CB01BC01CD010E94DA
:103820004900DC01CB019E838D830FC088EC90E0C2
:103830009C838B838B819C810197F1F79C838B8385
:103840008D819E8101979E838D838D819E810097BE
:1038500069F714C06F81788589859A850E9449002F
:10386000DC01CB019E838D838D819E819A83898328
:1038700089819A810197F1F79A8389838F858530B1
:1038800019F48CE00E9413148F85853008F46ACFF8
:1038900088898D3309F066CF83E28093EE020E941F
:1038A000EA1962960FB6F894DEBF0FBECDBFCF9176
:1038B000DF910895DF93CF93CDB7DEB786E60E9400
:1038C000FF060E9416078636E1F789EE92E00E9415
:1038D0002507CF91DF910895DF93CF93CDB7DEB762
:1038E00060970FB6F894DEBF0FBECDBF86E60E948C
:1038F000FF060E9416078636E1F70E9416078F879B
:103900008F858F3F11F4188A90C08F85882309F026
:103910008AC08091EF02833009F485C020E630E050
:1039200080E060E0A9010E94AE1920E830E081E06B
:1039300060E0A9010E94AE1980E090E0AAE7B4E43B
:103940008B879C87AD87BE876B857C858D859E85A3
:1039500020E030E04AEF54E40E941F02DC01CB017A
:103960008F839887A987BA876F81788589859A859B
:1039700020E030E040E85FE30E94790388232CF4E4
:1039800081E090E09E838D833FC06F81788589853B
:103990009A8520E03FEF4FE757E40E94190318167D
:1039A0004CF56B857C858D859E8520E030E040E27E
:1039B00051E40E941F02DC01CB01BC01CD010E9439
:1039C0004900DC01CB019E838D830FC088EC90E021
:1039D0009C838B838B819C810197F1F79C838B83E4
:1039E0008D819E8101979E838D838D819E8100971D
:1039F00069F714C06F81788589859A850E9449008E
:103A0000DC01CB019E838D838D819E819A83898386
:103A100089819A810197F1F79A8389830E94EA1933
:103A200081E0888B02C081E0888B888960960FB620
:103A3000F894DEBF0FBECDBFCF91DF910895DF9325
:103A4000CF930F92CDB7DEB7898386E60E94FF063B
:103A50000E9416078636E1F789810E94FF060F90C3
:103A6000CF91DF910895DF93CF93CDB7DEB76C97F9
:103A70000FB6F894DEBF0FBECDBF8FE00E941314C7
:103A800080E063E00E94661983E990E068E270E0FC
:103A90000E94B91881E06AE00E94661980E090E80F
:103AA000ABE3B4E4898F9A8FAB8FBC8F698D7A8D2D
:103AB0008B8D9C8D20E030E04AEF54E40E941F0281
:103AC000DC01CB018D8B9E8BAF8BB88F6D897E898E
:103AD0008F89988D20E030E040E85FE30E94790311
:103AE00088232CF481E090E09C8B8B8B3FC06D8908
:103AF0007E898F89988D20E03FEF4FE757E40E9441
:103B0000190318164CF5698D7A8D8B8D9C8D20E0EC
:103B100030E040E251E40E941F02DC01CB01BC0115
:103B2000CD010E944900DC01CB019C8B8B8B0FC027
:103B300088EC90E09A8B898B89899A890197F1F7B3
:103B40009A8B898B8B899C8901979C8B8B8B8B891A
:103B50009C89009769F714C06D897E898F89988D3B
:103B60000E944900DC01CB019C8B8B8B8B899C894B
:103B7000988B8F878F8598890197F1F7988B8F871E
:103B80008DEA90E068E270E00E94B9188CE00E9433
:103B9000131480E090E4ACE9B4E48B879C87AD8794
:103BA000BE876B857C858D859E8520E030E04AEF61
:103BB00054E40E941F02DC01CB018F839887A98700
:103BC000BA876F81788589859A8520E030E040E862
:103BD0005FE30E94790388232CF481E090E09E83C8
:103BE0008D833FC06F81788589859A8520E03FEF7E
:103BF0004FE757E40E94190318164CF56B857C8536
:103C00008D859E8520E030E040E251E40E941F0255
:103C1000DC01CB01BC01CD010E944900DC01CB01DC
:103C20009E838D830FC088EC90E09C838B838B8177
:103C30009C810197F1F79C838B838D819E810197F5
:103C40009E838D838D819E81009769F714C06F815B
:103C5000788589859A850E944900DC01CB019E8385
:103C60008D838D819E819A83898389819A81019731
:103C7000F1F79A8389830E94EA196C960FB6F8943B
:103C8000DEBF0FBECDBFCF91DF910895DF93CF93FD
:103C9000CDB7DEB788EB90E00E94961B0E945A1CBD
:103CA00085ED90E00E94961B0E945A1C0E946C1C9D
:103CB000813081F3CF91DF910895DF93CF9300D0CE
:103CC000CDB7DEB723EF30E080E060E0A9010E94CD
:103CD000AE1927E031E081E060E0A9010E94AE1951
:103CE0000E949F1A898389818B3219F089818D32D4
:103CF000B9F70E94EA198091EF028F5F8093EF027B
:103D00008091EF02843018F082E08A8313C081E250
:103D100091E00E94961B0E945A1C0E946C1C8130EC
:103D200051F31092EF0289818D3211F41A8202C090
:103D300081E08A838A810F900F90CF91DF9108955F
:103D4000DF93CF93CDB7DEB78091F0028F5F809382
:103D5000F002CF91DF910895DF93CF9300D0CDB7DC
:103D6000DEB79A83898380E10E941F1D2CE331E036
:103D700080E060E0A9010E94AE19E981FA8182EE3B
:103D800094EE9183808389819A810E94C0088091FA
:103D9000F0028230E0F323E531E080E060E0A90149
:103DA0000E94AE1981E06EE87BE50E945309809184
:103DB000F0028330E0F32AE631E080E060E0A90120
:103DC0000E94AE1981E062EE74EE0E945309809168
:103DD000F0028530E0F381E00E94F2081092F002D8
:103DE0000F900F90CF91DF910895DF93CF93CDB7D0
:103DF000DEB72E970FB6F894DEBF0FBECDBF81E1C0
:103E00000E941F1D0E94461E21E831E080E060E014
:103E1000A9010E94AE1980E090E8ABEBB4E48B8777
:103E20009C87AD87BE876B857C858D859E8520E0D0
:103E300030E04AEF54E40E941F02DC01CB018F8383
:103E40009887A987BA876F81788589859A8520E0C8
:103E500030E040E85FE30E94790388232CF481E09E
:103E600090E09E838D833FC06F81788589859A8598
:103E700020E03FEF4FE757E40E94190318164CF576
:103E80006B857C858D859E8520E030E040E251E4A5
:103E90000E941F02DC01CB01BC01CD010E94490040
:103EA000DC01CB019E838D830FC088EC90E09C8366
:103EB0008B838B819C810197F1F79C838B838D8110
:103EC0009E8101979E838D838D819E81009769F7E6
:103ED00014C06F81788589859A850E944900DC012C
:103EE000CB019E838D838D819E819A838983898175
:103EF0009A810197F1F79A8389830E94EA192E9695
:103F00000FB6F894DEBF0FBECDBFCF91DF910895FD
:103F1000DF93CF9300D0CDB7DEB79A838983109219
:103F2000EF020E94EA1922EA31E080E060E0A90194
:103F30000E94AE192DEB31E081E060E0A9010E9402
:103F4000AE19E981FA8182EE94EE918380838981B2
:103F50009A810E94C0088091F0028830E0F30E94AC
:103F6000EA191092F00281E00E94F2080F900F907F
:103F7000CF91DF910895DF93CF93CDB7DEB76397ED
:103F80000FB6F894DEBF0FBECDBF198289E0FE01E7
:103F90003296DF01282F1D922A95E9F780E895E2F5
:103FA000A0E0B0E08A839B83AC83BD8383E08E83F3
:103FB00087E0FE013B96DF01282F1D922A95E9F745
:103FC00082EE94EE9C878B8781E08D8782E08E87DE
:103FD00085E08F8720EA3EE181E0B9010E941A095D
:103FE0007894CE0102960E946B060E9477130E947D
:103FF000331D0E94461E0E945D1E89838981A82F61
:10400000B0E0BB8BAA8B2A893B892130310551F066
:104010008A899B898230910569F0AA89BB891097AA
:1040200031F0E9CFCE010B960E94AC1EE4CF0E9486
:10403000F51EE1CFCE010B960E94881FDCCF629F58
:10404000D001739FF001829FE00DF11D649FE00D90
:10405000F11D929FF00D839FF00D749FF00D659FF1
:10406000F00D9927729FB00DE11DF91F639FB00DF0
:10407000E11DF91FBD01CF0111240895AA1BBB1B2F
:1040800051E107C0AA1FBB1FA617B70710F0A61B58
:10409000B70B881F991F5A95A9F780959095BC0179
:1040A000CD010895A1E21A2EAA1BBB1BFD010DC074
:1040B000AA1FBB1FEE1FFF1FA217B307E407F507D8
:1040C00020F0A21BB30BE40BF50B661F771F881FB4
:1040D000991F1A9469F760957095809590959B014A
:1040E000AC01BD01CF0108952F923F924F925F9294
:1040F0006F927F928F929F92AF92BF92CF92DF92F8
:10410000EF92FF920F931F93CF93DF93CDB7DEB75C
:10411000CA1BDB0B0FB6F894DEBF0FBECDBF0994F0
:104120002A88398848885F846E847D848C849B8447
:10413000AA84B984C884DF80EE80FD800C811B8155
:10414000AA81B981CE0FD11D0FB6F894DEBF0FBE84
:10415000CDBFED010895FB019F01E8944230C4F00A
:104160004532B4F44A3029F497FB1EF490958195BA
:104170009F4F642F77270E943E20805D8A330CF08A
:10418000895D8193CB010097A1F716F45DE251930D
:104190001082C9010C94CC20DC01FC01672F7191C5
:1041A0007723E1F7329704C07C916D93708362911D
:0C41B000AE17BF07C8F30895F894FFCFC6
:1041BC004552524F523A2050617373776F7264209C
:1041CC00446F6573204E6F74204D617463682E00CC
:1041DC00506C656173652054727920416761696E1A
:1041EC00202100444F4F52204C4F434B205345430A
:1041FC0055524954592053595354454D0042793A1C
:10420C00204D617277616E00506C6561736520455D
:10421C006E7465722041204E657720506173737700
:10422C006F72643A00506C656173652052652D6540
:10423C006E746572205468652050617373776F7269
:10424C00643A00282B293A204F70656E205468651B
:10425C0020446F6F722E00282D293A204368616E1E
:10426C006765205468652050617373776F72642E94
:10427C0000506C6561736520456E746572205468DE
:10428C00652050617373776F72643A0054686520CF
:10429C00446F6F72206973204F70656E696E672E64
:1042AC002E2E0054686520446F6F72206973204F66
:1042BC0070656E6564202120200054686520446F71
:1042CC006F7220697320436C6F73696E672E2E2E8C
:1042DC0000546865204E65772050617373776F7258
:1042EC0064204973204E6F77204163746976653A78
:1042FC0029004552524F523A20544F4F204D414EB7
:10430C005920415454454D505453202100444F4F93
:10431C0052204953204C4F434B454420464F52208A
:10432C0031204D494E2E2E000000000000000000F0
:10433C000001020203030303040404040404040440
:10434C000505050505050505050505050505050511
:10435C0006060606060606060606060606060606F1
:10436C0006060606060606060606060606060606E1
:10437C0007070707070707070707070707070707C1
:10438C0007070707070707070707070707070707B1
:10439C0007070707070707070707070707070707A1
:1043AC000707070707070707070707070707070791
:1043BC000808080808080808080808080808080871
:1043CC000808080808080808080808080808080861
:1043DC000808080808080808080808080808080851
:1043EC000808080808080808080808080808080841
:1043FC000808080808080808080808080808080831
:10440C000808080808080808080808080808080820
:10441C000808080808080808080808080808080810
:10442C000808080808080808080808080808080800
:00000001FF
